:100000000C94C7010C94F8010C94F8010C94F801BD
:100010000C94F8010C94F8010C94F8010C94F8017C
:100020000C94F8010C94F8010C94F8010C94F8016C
:100030000C94F8010C94F8010C94F8010C94F8015C
:100040000C94F8010C94F8010C94F8010C94F8014C
:100050000C94F8010C94F8010C94F8010C944305ED
:100060000C94F8010C94B7050C948D050C94F801D0
:100070000C94F8010C94F8010C94F8010C94F8011C
:100080000C94F8010C94F8010C94F8010C94F8010C
:100090000C94F8010C94F8010C94F8010C94F801FC
:1000A0000C94F8010C94F8010C94F8010C94F801EC
:1000B0000C94F8010C94F8010C94F8010C94F801DC
:1000C0000C94F8010C94F8010C94F8010C94F801CC
:1000D0000C94F8010C94F8010C94F8010C94F801BC
:1000E0000C94F8010C942B020C94D2070C94650329
:1000F0000C9441080C94E6070C94AF020C947C021B
:100100000C9414080C9452020C94D2020C94260203
:100110000C946E080C945F080C946E020C943708D3
:100120000C9460020C945C020C9482020C945602B3
:100130000C9464020C9478020C9428080C944C02E1
:100140000C943D020C94F0070C941E080C946A0267
:100150000C94D7070C9402080C9441020C940A08E2
:100160000C9418030C94BE020C9445020C94FA07EC
:100170000C944B080C94DC070C9469080C945508FB
:100180000C9449020C9472020C94E00200407A1024
:10019000F35A00A0724E18090010A5D4E80000E838
:1001A0007648170000E40B54020000CA9A3B000096
:1001B00000E1F505000080969800000040420F0025
:1001C0000000A08601000000102700000000E803E6
:1001D000000000006400000000000A0000000000B1
:1001E0000100000000002C76D888DC674F0823DF70
:1001F000C1DFAE59E1B1B796E5E3E453C63AE65143
:10020000997696E8E6C28426EB898C9B62ED407C69
:100210006FFCEFBC9C9F40F2BAA56FA5F490055A05
:100220002AF75C936B6CF9676DC11BFCE0E40D472A
:10023000FEF520E6B500D0ED902E0300943577054D
:100240000080841E080000204E0A000000C80C3305
:100250003333330F986E12831141EF8D2114893B94
:10026000E65516CFFEE6DB18D1844B381BF77C1D14
:10027000901DA4BBE424203284725E228100C9F167
:1002800024ECA1E53D2700002100240027002A00DE
:100290002D003000330001010000040107010A01B4
:1002A00000002200250028002B002E003100340021
:1002B00002010000050108010B0105050505070500
:1002C00008080808020202020A0A080804040404D2
:1002D00001010101010101010303030303030303FE
:1002E000040707070C0C0C0C0C0C0C0C020202028D
:1002F00006060606060606060B0B0B0B0B0B0B0B76
:100300000102102020080810204010204080020127
:10031000020108040201010204081020408080400C
:10032000201008040201800402018040201008040B
:1003300002010804020101020408102040800102A9
:1003400004081020408000000A0B02090C0D0E0862
:10035000070304010000000000000000000000008E
:10036000000000000000000000000000000000008D
:10037000000012111000000000000000000000004A
:100380000000000000000000000000006E081124C2
:100390001FBECFEFD1E2DEBFCDBF00E00CBF12E049
:1003A000A0E0B2E0E2EFFAE100E00BBF02C007908C
:1003B0000D92A03CB107D9F723E0A0ECB2E001C058
:1003C0001D92A43CB207E1F711E0C7ECD1E000E0D8
:1003D00006C021970109802FFE010E946F0DC63CC7
:1003E000D10780E00807A9F70E94ED050C94770D6E
:1003F0000C940000382FE3E5F3E08491EDE0F3E0A6
:100400002491E7ECF2E09491992309F435C0882314
:1004100011F181508231F8F4E82FF0E08827EC5E8A
:10042000FD4F8F4F0C946F0D4502490226023D028D
:1004300041022B024C02520256025C02600264022C
:100440006A026E022B02720278027C0280918000A6
:100450008F7780938000E92FF0E0EE0FFF1FE056CA
:10046000FD4FA591B4918FB7F894EC91311148C02C
:1004700020952E232C938FBF0895809180008F7D2F
:10048000E8CF80918000877FE4CF84B58F7784BDEB
:10049000E2CF84B58F7DFBCF8091B0008F778093C2
:1004A000B000D9CF8091B0008F7DF9CF80919000BE
:1004B0008F7780939000CFCF809190008F7DF9CF80
:1004C00080919000877FF5CF8091A0008F778093F7
:1004D000A000C1CF8091A0008F7DF9CF8091A000B6
:1004E000877FF5CF809120018F7780932001B3CF54
:1004F000809120018F7DF9CF80912001877FF5CFFA
:100500002E2BB8CFAF92BF92CF92DF92EF92FF9295
:100510000F931F93CF93DF936C017B018B01040F2B
:10052000151FEB015E01AE18BF08C017D10759F0C7
:100530006991D601ED91FC910190F081E02DC60109
:100540001995892B79F7C501DF91CF911F910F91F3
:10055000FF90EF90DF90CF90BF90AF900895FC0197
:10056000538D448D252F30E0842F90E0821B930B18
:10057000541710F0CF96089501970895FC01918DBE
:10058000828D981761F0A28DAE0FBF2FB11D5D96C1
:100590008C91928D9F5F9F73928F90E008958FEF63
:1005A0009FEF0895FC01918D828D981731F0828D17
:1005B000E80FF11D858D90E008958FEF9FEF08956E
:1005C000FC01918D228D892F90E0805C9F4F821BD2
:1005D00091098F739927089587E293E00E94E002C2
:1005E00021E0892B09F420E0822F0895FC01A48DDD
:1005F000A80FB92FB11DA35ABF4F2C91848D90E045
:1006000001968F739927848FA689B7892C93A08927
:10061000B1898C91837080648C93938D848D9813B1
:1006200006C00288F389E02D80818F7D8083089544
:10063000EF92FF920F931F93CF93DF93EC0181E032
:10064000888F9B8D8C8D98131AC0E889F9898081D9
:1006500085FF15C09FB7F894EE89FF896083E8890C
:10066000F98980818370806480839FBF81E090E0FE
:10067000DF91CF911F910F91FF90EF900895F62E8B
:100680000B8D10E00F5F1F4F0F731127E02E8C8D25
:100690008E110CC00FB607FCFACFE889F98980816A
:1006A00085FFF5CFCE010E94F602F1CFEB8DEC0F66
:1006B000FD2FF11DE35AFF4FF0829FB7F8940B8F87
:1006C000EA89FB8980818062CFCFCF93DF93EC01F1
:1006D000888D8823B9F0AA89BB89E889F9898C912A
:1006E00085FD03C0808186FD0DC00FB607FCF7CFE6
:1006F0008C9185FFF2CF808185FFEDCFCE010E94E6
:10070000F602E9CFDF91CF91089580E090E0892B48
:1007100029F00E94EC0281110E94000080E090E02C
:10072000892B49F080E090E0892B29F00E9400009D
:1007300081110E94000080E090E0892B49F080E068
:1007400090E0892B29F00E94000081110E94000096
:1007500080E090E0892B49F080E090E0892B29F03F
:100760000E94000081110C9400000895CF93DF9344
:1007700090E0FC01E050FD4F249186549D4FFC0118
:1007800084918823D1F090E0880F991FFC01EA57EB
:10079000FD4FA591B491FC01E056FD4FC591D49158
:1007A00061110EC09FB7F8948C91E22FE0958E23D3
:1007B0008C932881E223E8839FBFDF91CF91089536
:1007C0008FB7F894EC91E22BEC938FBFF6CFFC013E
:1007D00001900020E9F73197AF01481B590BBC018C
:1007E00087E293E00C9482028F929F92AF92BF9225
:1007F0000F931F93CF93DF93CDB7DEB7A1970FB6BB
:10080000F894DEBF0FBECDBF19A2423008F44AE013
:100810008E010F5D1F4F842E912CB12CA12CA501B0
:1008200094010E944D0DE62FB901CA01EA30F4F49B
:10083000E05DD801EE938D01232B242B252B79F736
:1008400090E080E0109719F0CD010E94E703A19697
:100850000FB6F894DEBF0FBECDBFDF91CF911F91D1
:100860000F91BF90AF909F908F900895E95CE1CF7A
:10087000CF92DF92EF92FF92CF93DF936B017C01D7
:100880006DE287E293E00E941803EC016627772768
:10089000CB016C197D098E099F094AE00E94F4037F
:1008A0008C0F9D1FDF91CF91FF90EF90DF90CF9045
:1008B0000895CF93DF930E94E703EC0182E192E079
:1008C0000E94E7038C0F9D1FDF91CF9108954F92F7
:1008D0005F926F927F928F929F92AF92BF92CF92D0
:1008E000DF92EF92FF920F931F93CF936B017C01E6
:1008F000742EAC019B010E94480D882399F085E17C
:1009000092E0CF911F910F91FF90EF90DF90CF90E9
:10091000BF90AF909F908F907F906F905F904F901F
:100920000C94E70346015701E894B7F82FEF3FEF27
:100930004FE75FE7C501B4010E94480D81110DC06A
:100940002FEF3FEF4FE75FE7C501B4010E94770B40
:1009500018161CF489E192E0D4CF2FEF3FEF4FE758
:100960005FE4C701B6010E94D60C18161CF48DE195
:1009700092E0C7CF2FEF3FEF4FE75FECC701B60123
:100980000E94770B87FDF3CF20E030E0A901C7017B
:10099000B6010E94770B10E000E087FF0AC06DE20D
:1009A00087E293E00E9418038C01F7FAF094F7F8BD
:1009B000F094C0E060E070E080E09FE37C1641F0DE
:1009C00020E030E040E251E40E947C0BCF5FF6CFA4
:1009D000A70196010E940B0B2B013C010E94F50B15
:1009E0004B015C014AE00E94F4037C01E00EF11E21
:1009F000CC23C1F1C501B4010E94240C9B01AC01C0
:100A0000C301B2010E940A0B4B015C016EE287E256
:100A100093E00E941803E80EF91EC15018F120E07F
:100A200030E040E251E4C501B4010E94DB0C2B012F
:100A30003C010E94F50B4B01B12CA12C4AE0C501F1
:100A4000B4010E94F403E80EF91EC501B4010E942E
:100A5000240C9B01AC01C301B2010E940A0B4B01A3
:100A60005C01DBCFC701CF911F910F91FF90EF90F9
:100A7000DF90CF90BF90AF909F908F907F906F90BE
:100A80005F904F9008951F920F920FB60F9211240E
:100A90002F933F938F939F93AF93BF9380912303A3
:100AA00090912403A0912503B09126033091220355
:100AB00023E0230F2D3758F50196A11DB11D20937A
:100AC00022038093230390932403A0932503B093E0
:100AD000260380911E0390911F03A0912003B091E3
:100AE00021030196A11DB11D80931E0390931F0346
:100AF000A0932003B0932103BF91AF919F918F9159
:100B00003F912F910F900FBE0F901F90189526E8E0
:100B1000230F0296A11DB11DD2CF1F920F920FB6C7
:100B20000F9211240BB60F922F933F934F935F9325
:100B30006F937F938F939F93AF93BF93EF93FF93A5
:100B400087E293E00E94F602FF91EF91BF91AF918F
:100B50009F918F917F916F915F914F913F912F91D5
:100B60000F900BBE0F900FBE0F901F9018951F9205
:100B70000F920FB60F9211240BB60F922F938F93F3
:100B80009F93EF93FF93E0913703F09138038081B7
:100B9000E0913D03F0913E0382FD1DC09081809164
:100BA00040038F5F8F7320914103821741F0E091E2
:100BB0004003F0E0E95DFC4F958F80934003FF9187
:100BC000EF919F918F912F910F900BBE0F900FBEC1
:100BD0000F901F9018958081F2CF789484B5826031
:100BE00084BD84B5816084BD85B5826085BD85B5D1
:100BF000816085BD80916E00816080936E0010924F
:100C000081008091810082608093810080918100C9
:100C1000816080938100809180008160809380005A
:100C20008091B10084608093B1008091B0008160B8
:100C30008093B000809191008260809391008091B8
:100C400091008160809391008091900081608093F9
:100C500090008091A10082608093A1008091A1000A
:100C600081608093A1008091A00081608093A000AA
:100C70008091210182608093210180912101816016
:100C800080932101809120018160809320018091D7
:100C90007A00846080937A0080917A0082608093E9
:100CA0007A0080917A00816080937A0080917A0046
:100CB000806880937A001092C10060E083E00E9417
:100CC000B60361E08DE00E94B60361E08DE00E9412
:100CD000B60381E00E94FA01E0913703F0913803F6
:100CE00082E08083E0913303F09134031082E0913D
:100CF0003503F09136038FEC808310923F03E0912F
:100D00003B03F0913C0386E08083E0913903F0914E
:100D10003A03808180618083E0913903F0913A0346
:100D2000808188608083E0913903F0913A0380816B
:100D300080688083E0913903F0913A0380818F7D50
:100D4000808381E292E00E94590480E392E00E9455
:100D5000E70343E06BED7FE089E490E40E946704E1
:100D600081EB92E00E9459048DE492E00E94E70337
:100D700000EC12E025E044E06BED7FE089E490E4D4
:100D80000E949B08C8010E94590483E692E00E94D9
:100D9000E70345E06BED7FE089E490E40E9467049F
:100DA00082E192E00E94E70361E089E00E94B603DD
:100DB00081E4F82E03E513E080917B008860809346
:100DC0007B00F0927C0080917A00806480937A00AE
:100DD00080917A0086FDFCCF909178008091790017
:100DE00089279827892790931D0380931C032091BE
:100DF0001A0330911B032817390709F4A3C08DE8A3
:100E000092E00E94E70360911C0370911D03072E7E
:100E1000000C880B990B97FF98C00E94380482E160
:100E200092E00E94E70360911C0370911D03072E5E
:100E3000000C880B990B0E94260C20E030E040E863
:100E40005AE30E94DB0C20E030E44CE955E40E94B8
:100E5000DB0C609316037093170380931803909331
:100E6000190320E030E04AE754E40E947C0B6093D1
:100E7000120370931303809314039093150387EA6E
:100E800092E00E94E703609116037091170380912E
:100E900018039091190342E00E9467048CEA92E0E3
:100EA0000E94E70360911203709113038091140371
:100EB0009091150342E00E94670482E192E00E9453
:100EC000E70360911C0370911D0370931B036093F3
:100ED0001A03072E000C880B990B0E94260C20E0A9
:100EE00030E040E85AE30E94DB0C20E030E04FE7BE
:100EF00053E40E94DB0C0E94EE0B7093110360938D
:100F0000100383EB92E00E94E7036091100370915D
:100F10001103072E000C880B990B97FF1AC00E9433
:100F2000380482E192E00E94E703C0911003D0915F
:100F3000110361E08DE00E94B603209771F480E018
:100F40000E94FA010E94850337CF4AE00E94F40311
:100F500066CF4AE00E94F403E4CFCF3FD10511F4FD
:100F600081E0EECFF8018491EFEFE80FE23108F075
:100F7000B0C0F0E08827E054F84F8F4F0C946F0D0D
:100F8000D207D707DC07E607F0076908FA07020867
:100F90000A0814081E0828083708410869084B0881
:100FA00055085F0884B5806884BDC7BDCBCF84B5C4
:100FB000806284BDC8BDC6CF809180008068809368
:100FC0008000D0938900C0938800BCCF80918000BE
:100FD000806280938000D0938B00C0938A00B2CF50
:100FE00080918000886080938000D0938D00C093B2
:100FF0008C00A8CF8091B00080688093B000C0932F
:10100000B300A0CF8091B00080628093B000C09305
:10101000B40098CF80919000806880939000D09326
:101020009900C09398008ECF809190008062809349
:101030009000D0939B00C0939A0084CF8091900041
:10104000886080939000D0939D00C0939C007ACFDD
:101050008091A00080688093A0008091A0008F7B89
:101060008093A000D093A900C093A8006BCF80917B
:10107000A00080628093A000D093AB00C093AA0030
:1010800061CF8091A00088608093A000D093AD00D4
:10109000C093AC0057CF80912001806880932001DD
:1010A000D0932901C09328014DCF80912001806207
:1010B00080932001D0932B01C0932A0143CF8091CC
:1010C0002001886080932001D0932D01C0932C01D2
:1010D00039CFC038D1050CF043CF31CFE7E2F3E090
:1010E0001382128288EE93E0A0E0B0E084839583BF
:1010F000A683B78384E092E09183808385EC90E0BF
:101100009587848784EC90E09787868780EC90E0D1
:10111000918B808B81EC90E0938B828B82EC90E0C2
:10112000958B848B86EC90E0978B868B118E128E3C
:10113000138E148E0895EF920F931F93CF93DF9326
:10114000E80134E047FD34E1042E000C550B57FF55
:1011500003C0519541955109E32E022F242FAE0172
:101160000E94B908CE01DF91CF911F910F91EF90AE
:1011700008958F929F92AF92BF92CF92DF92EF929B
:10118000FF920F931F93CF93DF9300D000D000D036
:10119000CDB7DEB76A01F22EB02E102FFBE3AF2ED3
:1011A000A01608F41BE31F5F012F27E0AE014F5F7D
:1011B0005F4F0E94320ABC018981982F997091304B
:1011C00009F44EC09BE2E1FC04C09E2D9170E0FC4E
:1011D00049C05E2D5071E82FE87083FF55C084E050
:1011E000911101C083E0EF2DE81B8F1508F0E0E0BE
:1011F000D6018E2F20E25523C9F1992329F0D6017B
:101200009C93C60101966C0196012D5F3F4FE2FE53
:1012100033C08EE4D6018C9391E411969C93119780
:1012200012968C93D9018E2F90E281112AC0E20F81
:10123000F32FF11D10828EEF9FEF29960FB6F894D1
:10124000DEBF0FBECDBFDF91CF911F910F91FF90F9
:10125000EF90DF90CF90BF90AF909F908F900895C8
:101260009DE2B7CF90E2B5CF2D9381508111FCCF95
:10127000CE0ED11CE0E0C1CF8EE6D6018C9391E674
:10128000CCCF9D938150D1CF482F447082FF3DC079
:1012900084E0911101C083E08F1510F4EF2DE81B5D
:1012A000D6018E2F20E2552309F1992329F0D6018A
:1012B0009C93C60101966C0196012D5F3F4FE2FEA3
:1012C0001BC089E4D6018C938EE411968C93119700
:1012D00086E412968C93D9018E2F90E2882309F42C
:1012E000A6CF9D938150FACF2D9381508111FCCFD1
:1012F000CE0ED11CE0E0D9CF89E6D6018C938EE6E4
:1013000011968C93119786E6E4CF9B0177FF02C07C
:1013100030E020E0A1E0B0E0911102C0B0E0A0E038
:10132000F9013196AE0FBF1F8B2C912CBB2009F415
:1013300061C05401EFEFAE1ABE0AAA0DBB1DFA162A
:101340001B0619F014F04F2D4A1B511188C0E3FC05
:1013500059C07601A42FB0E2A1114FC0C40ED11C18
:10136000992309F45BC040E0D6011196F601908301
:101370006D01552309F448C0012F060F9A81582F9B
:10138000507184FF03C0913309F4015010160CF022
:1013900047C0093008F008E0EEE2FE2E5B01A01A1B
:1013A000B10885019194819491082F3F320729F467
:1013B000D601FC92F60131966F016217730794F122
:1013C000021713077CF5DB01A21BB30BAA24A3941D
:1013D000B12CAC0EBD1EAA0DBB1D11968C912150D7
:1013E0003109D601119628153905F4F0F6018083EC
:1013F0006D01DBCFB12CA12CA0CFF701B1937F0100
:10140000A150AACF9111B0CFD601942F50E302C0C2
:101410005D9391509111FCCFC40ED11C40E0ACCF34
:1014200001E0BACF80E3DBCF6217730731F4963364
:1014300088F4953311F4552369F0F6018083FD019A
:10144000842F90E2811108C0A40FB11D1C9290E07E
:1014500080E0F3CE81E3F1CF91938150F3CF9111EE
:1014600083CF8ACF283008F027E03327DA01990F9D
:10147000311D87FD916000966105710539F4326078
:101480002E5F3D9330E32A95E1F708959F3F30F0BA
:1014900080387105610509F03C5F3C5F3D939130F8
:1014A00008F08068911DDF93CF931F930F93FF92F5
:1014B000EF92192F987F9695E92F96959695E90FBB
:1014C000FF27EA51FE4F99273327EE24FF24A70177
:1014D000E70105900894079428F4360FE71EF81EDC
:1014E000491F511D660F771F881F991F0694A1F78A
:1014F0000590079428F4E70EF81E491F561FC11DDA
:10150000770F881F991F661F0694A1F7059007940F
:1015100028F4F80E491F561FC71FD11D880F991FA9
:10152000661F771F0694A1F70590079420F4490FD2
:10153000561FC71FD81F990F661F771F881F069455
:10154000A9F784911095177041F0D695C7955795D6
:101550004795F794E7941A95C1F7ECE8F1E06894A1
:101560001590159135916591959105907FE2739550
:10157000E118F10A430B560BC90BD009C0F7E10C77
:10158000F11E431F561FC91FD01D7EF4703311F486
:101590008A95E6CFE894015030F0080F0AF400274E
:1015A000021708F4202F2395022F7A3328F079E3CD
:1015B0007D932A95E9F710C07D932A9589F60694C4
:1015C00097956795379517951794E118F10A430B8E
:1015D000560BC90BD00998F023957E9173957A33F9
:1015E00008F070E37C932013B8F77E9170617D93CF
:1015F00030F0839571E37D9370E32A95E1F7112430
:10160000EF90FF900F911F91CF91DF91992787FD68
:10161000909508955058BB27AA270E94220B0C943E
:101620009C0C0E948E0C38F00E94950C20F039F42E
:101630009F3F19F426F40C948B0C0EF4E095E7FB15
:101640000C94850CE92F0E94AD0C58F3BA17620771
:1016500073078407950720F079F4A6F50C94CF0C56
:101660000EF4E0950B2EBA2FA02D0B01B9019001BD
:101670000C01CA01A0011124FF27591B99F0593F01
:1016800050F4503E68F11A16F040A22F232F342F49
:101690004427585FF3CF469537952795A795F04097
:1016A0005395C9F77EF41F16BA0B620B730B840BAC
:1016B000BAF09150A1F0FF0FBB1F661F771F881F64
:1016C000C2F70EC0BA0F621F731F841F48F48795BC
:1016D00077956795B795F7959E3F08F0B0CF9395AE
:1016E000880F08F09927EE0F9795879508950E9427
:1016F000610C08F481E008950E94900B0C949C0CFE
:101700000E94950C58F00E948E0C40F029F45F3F27
:1017100029F00C94850C51110C94D00C0C948B0C6A
:101720000E94AD0C68F39923B1F3552391F3951BF7
:10173000550BBB27AA2762177307840738F09F5FF2
:101740005F4F220F331F441FAA1FA9F335D00E2E5F
:101750003AF0E0E832D091505040E695001CCAF7CC
:101760002BD0FE2F29D0660F771F881FBB1F26178F
:1017700037074807AB07B0E809F0BB0B802DBF0166
:10178000FF2793585F4F3AF09E3F510578F00C9435
:10179000850C0C94D00C5F3FE4F3983ED4F386950F
:1017A00077956795B795F7959F5FC9F7880F911D56
:1017B0009695879597F90895E1E0660F771F881F42
:1017C000BB1F621773078407BA0720F0621B730BF5
:1017D000840BBA0BEE1F88F7E09508950E94F50B75
:1017E0006894B1110C94D00C08950E94B50C88F047
:1017F0009F5798F0B92F9927B751B0F0E1F0660FD5
:10180000771F881F991F1AF0BA95C9F714C0B13015
:1018100091F00E94CF0CB1E008950C94CF0C672F8B
:10182000782F8827B85F39F0B93FCCF38695779544
:101830006795B395D9F73EF490958095709561952D
:101840007F4F8F4F9F4F0895E89409C097FB3EF458
:1018500090958095709561957F4F8F4F9F4F9923FD
:10186000A9F0F92F96E9BB279395F695879577957B
:101870006795B795F111F8CFFAF4BB0F11F460FF3B
:101880001BC06F5F7F4F8F4F9F4F16C0882311F093
:1018900096E911C0772321F09EE8872F762F05C0A7
:1018A000662371F096E8862F70E060E02AF09A9542
:1018B000660F771F881FDAF7880F9695879597F937
:1018C0000895990F0008550FAA0BE0E8FEEF1616D1
:1018D0001706E807F907C0F012161306E407F50724
:1018E00098F0621B730B840B950B39F40A2661F098
:1018F000232B242B252B21F408950A2609F4A1403B
:10190000A6958FEF811D811D089597F99F6780E847
:1019100070E060E008959FEF80EC089500240A9441
:101920001616170618060906089500240A941216BA
:101930001306140605060895092E0394000C11F4ED
:10194000882352F0BB0F40F4BF2B11F460FF04C09A
:101950006F5F7F4F8F4F9F4F089557FD9058440FF3
:10196000551F59F05F3F71F04795880F97FB991FFE
:1019700061F09F3F79F087950895121613061406BB
:10198000551FF2CF4695F1DF08C016161706180648
:10199000991FF1CF86957105610508940895E89423
:1019A000BB2766277727CB0197F908950E94610C22
:1019B00008F48FEF08950E94EE0C0C949C0C0E948A
:1019C0008E0C38F00E94950C20F0952311F00C94A9
:1019D000850C0C948B0C11240C94D00C0E94AD0C33
:1019E00070F3959FC1F3950F50E0551F629FF00172
:1019F000729FBB27F00DB11D639FAA27F00DB11D8B
:101A0000AA1F649F6627B00DA11D661F829F222713
:101A1000B00DA11D621F739FB00DA11D621F839F9A
:101A2000A00D611D221F749F3327A00D611D231F70
:101A3000849F600D211D822F762F6A2F11249F57BE
:101A400050409AF0F1F088234AF0EE0FFF1FBB1FC1
:101A5000661F771F881F91505040A9F79E3F510580
:101A600080F00C94850C0C94D00C5F3FE4F3983E0E
:101A7000D4F3869577956795B795F795E7959F5F2A
:101A8000C1F7FE2B880F911D9695879597F90895BC
:101A90000E94610C880B990B0895A1E21A2EAA1BD3
:101AA000BB1BFD010DC0AA1FBB1FEE1FFF1FA2170E
:101AB000B307E407F50720F0A21BB30BE40BF50B0B
:101AC000661F771F881F991F1A9469F76095709594
:101AD000809590959B01AC01BD01CF010895EE0F5B
:101AE000FF1F881F8BBF0790F691E02D1994F89483
:021AF000FFCF26
:101AF2000000000018038202AF026503E002BE028A
:101B0200D2020D0A006E616E00696E66006F766623
:101B12000054657374207072696E742050690A00F3
:101B22007072696E74205069207573696E672070D7
:101B320072696E745F666C6F61743A2000707269CC
:101B42006E74205069207573696E672066746F61C8
:101B52003A20000A63726F737320636865636B3A9D
:101B62002053657269616C2E7072696E746C6E2896
:101B720070695F6368202C2035293A0900416E6143
:101B82006C6F672076616C7565206368616E67654E
:101B92006420746F3A20006D563A2000207C205653
:101BA2003A200070776D5F76616C75653A200000AF
:00000001FF
