:100000000C941B010C94A0030C9475030C944A03EC
:100010000C941F030C94F4020C94C9020C949E02DD
:100020000C9473020C943C010C943C010C943C0124
:100030000C943C010C943C010C943C010C943C014C
:100040000C943C010C943C010C943C010C943C013C
:100050000C943C010C943C010C943C010C9429023E
:100060000C943C010C943C010C943C010C943C011C
:100070000C943C010C943C010C943C010C943C010C
:100080000C943C010C943C010C943C010C943C01FC
:100090000C943C010C943C010C943C010C943C01EC
:1000A0000C943C010C943C010C943C010C943C01DC
:1000B0000C943C010C943C010C943C010C943C01CC
:1000C0000C943C010C943C010C943C010C943C01BC
:1000D0000C943C010C943C010C943C010C943C01AC
:1000E0000C943C010C9428020C9490010C94A501F2
:1000F0000C948C010C94CB010C947A010C94BD01EE
:100100000C943E010C949B010C94B3010C94B90126
:100110000C94C1010C9498010C94AB010C94C70190
:100120000C9494010C94A1010C94AF010C947501F2
:1001300000000A0B02090C0D0E0807030401000061
:1001400000000000000000000000000000000000AF
:10015000000000000000000000000000121110006C
:10016000000000000000000000000000000000008F
:1001700000000000000000002200250028002B00E5
:100180002E003100340002010000050108010B01BE
:1001900000002100240027002A002D003000330039
:1001A00001010000040107010A0105050505070515
:1001B00008080808020202020A0A080804040404E3
:1001C000010101010101010103030303030303030F
:1001D000040707070C0C0C0C0C0C0C0C020202029E
:1001E00006060606060606060B0B0B0B0B0B0B0B87
:1001F0000102102020080810204010204080020139
:10020000020108040201010204081020408080401D
:10021000201008040201800402018040201008041C
:1002200002010804020101020408102040800102BA
:1002300004081020408011241FBECFEFD1E2DEBFA2
:10024000CDBF00E00CBF12E0A0E0B2E0EAE6F9E0CA
:1002500000E00BBF02C007900D92A031B107D9F7A3
:1002600022E0A0E1B2E001C01D92AB31B207E1F79C
:100270000E94CB030C94B3040C94000080911A02EA
:1002800091E0892780931A020895282F30E0F90120
:10029000E05DFE4F9491F901E051FE4F44912655E7
:1002A0003E4FF9012491222309F435C0992311F11D
:1002B00091509231F8F4E92FF0E08827ED59FE4F84
:1002C0008F4F0C94AB049401980175018C0190013F
:1002D0007A019B01A101A501AB01AF01B301B901F5
:1002E000BD017A01C101C701CB01809180008F77E8
:1002F00080938000E22FF0E0EE0FFF1FEA58FE4FE0
:10030000A591B4918FB7F894EC91611148C04095D4
:100310004E234C938FBF0895809180008F7DE8CF4E
:1003200080918000877FE4CF84B58F7784BDE2CF52
:1003300084B58F7DFBCF8091B0008F778093B00024
:10034000D9CF8091B0008F7DF9CF809190008F77C9
:1003500080939000CFCF809190008F7DF9CF8091D6
:100360009000877FF5CF8091A0008F778093A000C9
:10037000C1CF8091A0008F7DF9CF8091A000877FB1
:10038000F5CF809120018F7780932001B3CF8091AA
:1003900020018F7DF9CF80912001877FF5CF4E2BF3
:1003A000B8CF3FB7F8948091150290911602A091B2
:1003B0001702B091180226B5A89B05C02F3F19F06F
:1003C0000196A11DB11D3FBFBA2FA92F982F8827D5
:1003D000BC01CD01620F711D811D911D42E0660FB0
:1003E000771F881F991F4A95D1F708958F929F9282
:1003F000AF92BF92CF92DF92EF92FF924B015C01DE
:100400000E94D1016B017C010E94D1016C197D0910
:100410008E099F09683E734081059105A8F321E08C
:10042000821A9108A108B10888EEC80E83E0D81E90
:10043000E11CF11C81149104A104B10429F7FF907F
:10044000EF90DF90CF90BF90AF909F908F900895E6
:1004500008951F920F920FB60F9211242F933F937E
:100460008F939F93AF93BF9380911102909112024B
:10047000A0911302B09114023091100223E0230FD7
:100480002D3758F50196A11DB11D209310028093C0
:10049000110290931202A0931302B0931402809160
:1004A000150290911602A0911702B09118020196C0
:1004B000A11DB11D8093150290931602A0931702FF
:1004C000B0931802BF91AF919F918F913F912F915F
:1004D0000F900FBE0F901F90189526E8230F0296DD
:1004E000A11DB11DD2CF1F920F920FB60F921124F2
:1004F0000BB60F922F933F934F935F936F937F931E
:100500008F939F93AF93BF93EF93FF93E0910E026E
:10051000F0910F021995FF91EF91BF91AF919F91CB
:100520008F917F916F915F914F913F912F910F909C
:100530000BBE0F900FBE0F901F9018951F920F9239
:100540000FB60F9211240BB60F922F933F934F9338
:100550005F936F937F938F939F93AF93BF93EF932B
:10056000FF93E0910C02F0910D021995FF91EF912C
:10057000BF91AF919F918F917F916F915F914F91BB
:100580003F912F910F900BBE0F900FBE0F901F90B9
:1005900018951F920F920FB60F9211240BB60F925F
:1005A0002F933F934F935F936F937F938F939F937B
:1005B000AF93BF93EF93FF93E0910202F091030298
:1005C0001995FF91EF91BF91AF919F918F917F917D
:1005D0006F915F914F913F912F910F900BBE0F90B4
:1005E0000FBE0F901F9018951F920F920FB60F928B
:1005F00011240BB60F922F933F934F935F936F93FA
:100600007F938F939F93AF93BF93EF93FF93E0916B
:100610000002F09101021995FF91EF91BF91AF9106
:100620009F918F917F916F915F914F913F912F910A
:100630000F900BBE0F900FBE0F901F9018951F923A
:100640000F920FB60F9211240BB60F922F933F9378
:100650004F935F936F937F938F939F93AF93BF93CA
:10066000EF93FF93E0910A02F0910B021995FF912D
:10067000EF91BF91AF919F918F917F916F915F911A
:100680004F913F912F910F900BBE0F900FBE0F9087
:100690001F9018951F920F920FB60F9211240BB650
:1006A0000F922F933F934F935F936F937F938F930B
:1006B0009F93AF93BF93EF93FF93E0910802F09164
:1006C00009021995FF91EF91BF91AF919F918F9181
:1006D0007F916F915F914F913F912F910F900BBE42
:1006E0000F900FBE0F901F9018951F920F920FB68C
:1006F0000F9211240BB60F922F933F934F935F935A
:100700006F937F938F939F93AF93BF93EF93FF93D9
:10071000E0910602F09107021995FF91EF91BF91C8
:10072000AF919F918F917F916F915F914F913F9189
:100730002F910F900BBE0F900FBE0F901F9018952A
:100740001F920F920FB60F9211240BB60F922F9398
:100750003F934F935F936F937F938F939F93AF9349
:10076000BF93EF93FF93E0910402F0910502199576
:10077000FF91EF91BF91AF919F918F917F916F9179
:100780005F914F913F912F910F900BBE0F900FBE35
:100790000F901F901895789484B5826084BD84B5BD
:1007A000816084BD85B5826085BD85B5816085BD6C
:1007B00080916E00816080936E0010928100809124
:1007C00081008260809381008091810081608093AC
:1007D0008100809180008160809380008091B100D1
:1007E00084608093B1008091B00081608093B000FC
:1007F000809191008260809391008091910081604E
:10080000809391008091900081608093900080910E
:10081000A10082608093A1008091A10081608093FB
:10082000A1008091A00081608093A00080912101AF
:100830008260809321018091210181608093210158
:100840008091200181608093200180917A008460F2
:1008500080937A0080917A00826080937A00809100
:100860007A00816080937A0080917A00806880931A
:100870007A001092C100EDEFF1E02491E7EBF1E096
:100880008491882399F090E0880F991FFC01E0572C
:10089000FE4FA591B491FC01EA58FE4F85919491C9
:1008A0008FB7F894EC91E22BEC938FBFE3EFF1E07C
:1008B0002491EDEAF1E084918823C1F090E0880F63
:1008C000991FFC01E057FE4FC591D491FC01EA58F5
:1008D000FE4FA591B4919FB7F8943881822F8095EF
:1008E00083238883EC91E22BEC939FBF60911902E4
:1008F0008DE00E9445018EE391E090930302809386
:10090000020280916A00837F80936A00ED9AD1E0B1
:1009100000E010E080911A028823B9F0C09119021A
:100920006C2F6D278DE00E94450160E971E080E049
:1009300090E00E94F6016C2F8DE00E94450168EC6A
:1009400070E080E090E00E94F6010115110511F3BE
:100950000E940000DFCFEE0FFF1F881F8BBF0790A4
:0A096000F691E02D1994F894FFCFF2
:10096A00280228022802280228022802280228022D
:00000001FF
