:100000000C945F010C94850A0C945A0A0C942F0AE4
:100010000C94040A0C94D9090C94AE090C9483092D
:100020000C9458090C9490010C9490010C9490013C
:100030000C9490010C9490010C9490010C949001FC
:100040000C9490010C9490010C9490010C949001EC
:100050000C9490010C9490010C9490010C940E0956
:100060000C9490010C94D8080C94AE080C94900158
:100070000C9490010C9490010C9490010C949001BC
:100080000C9490010C9490010C9490010C949001AC
:100090000C9490010C9490010C9490010C9490019C
:1000A0000C9490010C9490010C9490010C9490018C
:1000B0000C9490010C94B00A0C9490010C94900153
:1000C0000C9490010C9490010C9490010C9490016C
:1000D0000C9490010C9490010C9490010C9490015C
:1000E0000C9490010C9415040C94D00D0C944304C2
:1000F0000C9431040C9407030C94DF010C94390226
:100100000C9498040C9484040C94FF020C94060440
:100110000C9403030C9430030C944D040C941403BE
:100120000C94A3010C94D0010C947A040C94280331
:100130000C9466040C94F5040C942C030C948E041B
:100140000C9486020C9492010C9470040C94360367
:100150000C941F040C940A030C940B040C94F301EC
:100160000C9457040C94F5020C947E050C94100327
:100170000C940E050C941A030C9439040C9422036D
:100180000C9435030C94FE030C943A030C9429044C
:100190000C94FB020C9401020C941E03000021003D
:1001A000240027002A002D00300033000101000048
:1001B000040107010A0100002200250028002B008D
:1001C0002E003100340002010000050108010B017E
:1001D000000020002300260029002C002F00320000
:1001E00000010000030106010901050505050705D9
:1001F00008080808020202020A0A080804040404A3
:1002000001010101010101010303030303030303CE
:10021000040707070C0C0C0C0C0C0C0C020202025D
:1002200006060606060606060B0B0B0B0B0B0B0B46
:1002300001021020200808102040102040800201F8
:1002400002010804020101020408102040808040DD
:1002500020100804020180040201804020100804DC
:10026000020108040201010204081020408001027A
:1002700004081020408000000A0B02090C0D0E0833
:10028000070304010000000000000000000000005F
:10029000000000000000000000000000000000005E
:1002A000000012111000000000000000000000001B
:1002B000000000000000000000000000D00D11242C
:1002C0001FBECFEFD1E2DEBFCDBF00E00CBF13E019
:1002D000A0E0B2E0ECE1FEE100E00BBF02C007905D
:1002E0000D92A239B107D9F724E0A2E9B3E001C029
:1002F0001D92A934B207E1F711E0CFE5D1E000E0AB
:1003000006C021970109802FFE010E94040FCE35FF
:10031000D10780E00807A9F70E94DB0A0C940C0FB4
:100320000C9400008091A003811107C08091A1006E
:100330009091A303892B8093A1008091A0038260F8
:100340008093A0030895AF92BF92CF92DF92EF9275
:10035000FF920F931F93CF93DF936C017B018B016F
:10036000040F151FEB015E01AE18BF08C017D107BF
:1003700059F06991D601ED91FC910190F081E02D49
:10038000C6011995892B79F7C501DF91CF911F918E
:100390000F91FF90EF90DF90CF90BF90AF900895B6
:1003A000FC01538D448D252F30E0842F90E0821B7B
:1003B000930B541710F0CF96089501970895FC0100
:1003C000918D828D981761F0A28DAE0FBF2FB11D58
:1003D0005D968C91928D9F5F9F73928F90E00895B0
:1003E0008FEF9FEF0895FC01918D828D981731F06A
:1003F000828DE80FF11D858D90E008958FEF9FEFBE
:100400000895FC01918D228D892F90E0805C9F4F93
:10041000821B91098F73992708958CEA93E00E94BB
:10042000010221E0892B09F420E0822F0895FC01CC
:10043000A48DA80FB92FB11DA35ABF4F2C91848D45
:1004400090E001968F739927848FA689B7892C93A2
:10045000A089B1898C91837080648C93938D848DF5
:10046000981306C00288F389E02D80818F7D8083F8
:100470000895EF92FF920F931F93CF93DF93EC01B8
:1004800081E0888F9B8D8C8D98131AC0E889F9893B
:10049000808185FF15C09FB7F894EE89FF8960833E
:1004A000E889F98980818370806480839FBF81E0BF
:1004B00090E0DF91CF911F910F91FF90EF90089501
:1004C000F62E0B8D10E00F5F1F4F0F731127E02EDC
:1004D0008C8D8E110CC00FB607FCFACFE889F98914
:1004E000808185FFF5CFCE010E941702F1CFEB8D01
:1004F000EC0FFD2FF11DE35AFF4FF0829FB7F894E8
:100500000B8FEA89FB8980818062CFCFCF93DF9305
:10051000EC01888D8823B9F0AA89BB89E889F9891B
:100520008C9185FD03C0808186FD0DC00FB607FC50
:10053000F7CF8C9185FFF2CF808185FFEDCFCE0183
:100540000E941702E9CFDF91CF91089580E090E0FB
:10055000892B29F00E940D0281110E94000080E089
:1005600090E0892B49F080E090E0892B29F00E94EF
:10057000000081110E94000080E090E0892B49F08A
:1005800080E090E0892B29F00E94000081110E94F8
:10059000000080E090E0892B49F080E090E0892B1A
:1005A00029F00E94000081110C94000008958150F0
:1005B000823108F05AC0E82FF0E08827ED51FD4F56
:1005C0008F4F0C94040F03030703F502FB02FF0295
:1005D00035030A03100314031A031E03220328031E
:1005E0002C033503300336033A03809180008F7764
:1005F000809380000895809180008F7DF9CF809155
:100600008000877FF5CF84B58F7784BD089584B54A
:100610008F7DFBCF8091B0008F778093B0000895DD
:100620008091B0008F7DF9CF809190008F7780937B
:1006300090000895809190008F7DF9CF8091900077
:10064000877FF5CF8091A0008F778093A0000895D9
:100650008091A0008F7DF9CF8091A000877FF5CF9A
:10066000809120018F77809320010895809120014F
:100670008F7DF9CF80912001877FF5CFCF93DF93D6
:10068000282F30E0F901EA58FD4F8491F901E05D2F
:10069000FD4FD491F901E651FE4FC491CC23A1F056
:1006A00081110E94D702EC2FF0E0EE0FFF1FE05304
:1006B000FE4FA591B491EC91ED2381E090E009F417
:1006C00080E0DF91CF91089580E090E0FACF1F9312
:1006D000CF93DF93282F30E0F901EA58FD4F849142
:1006E000F901E05DFD4FD491F901E651FE4FC4914F
:1006F000CC23A9F0162F81110E94D702EC2FF0E035
:10070000EE0FFF1FEA54FE4FA591B4918FB7F894F6
:10071000EC91111108C0D095DE23DC938FBFDF91DF
:10072000CF911F910895DE2BF8CFCF93DF9390E008
:10073000FC01E05DFD4F249186519E4FFC018491A8
:100740008823D1F090E0880F991FFC01E456FE4FFA
:10075000A591B491FC01EA54FE4FC591D491623049
:1007600071F49FB7F8943C91822F809583238C93EA
:10077000E8812E2B28839FBFDF91CF9108958FB7FB
:10078000F894EC912E2B2C938FBFF6CF1F93CF9321
:10079000DF93182FEB0161E00E949503209739F455
:1007A00060E0812FDF91CF911F910C946703CF3FC1
:1007B000D10511F461E0F5CFE12FF0E0EA58FD4FEB
:1007C000E491E150E23108F0B3C0F0E08827E45151
:1007D000FC4F8F4F0C94040FFE0306040B0415040A
:1007E0001F04980429043104390443044D045704B8
:1007F0006604700498047A0484048E0484B58068C6
:1008000084BDC7BDDF91CF911F91089584B58062EB
:1008100084BDC8BDF7CF8091800080688093800040
:10082000D0938900C0938800EDCF809180008062D2
:1008300080938000D0938B00C0938A00E3CF809197
:100840008000886080938000D0938D00C0938C00DE
:10085000D9CF8091B00080688093B000C093B3007E
:10086000D1CF8091B00080628093B000C093B4007B
:10087000C9CF80919000806880939000D0939900B8
:10088000C0939800BFCF80919000806280939000C9
:10089000D0939B00C0939A00B5CF80919000886060
:1008A00080939000D0939D00C0939C00ABCF80912B
:1008B000A00080688093A0008091A0008F7B80932F
:1008C000A000D093A900C093A8009CCF8091A00065
:1008D00080628093A000D093AB00C093AA0092CF17
:1008E0008091A00088608093A000D093AD00C09359
:1008F000AC0088CF80912001806880932001D09344
:100900002901C09328017ECF8091200180628093CD
:100910002001D0932B01C0932A0174CF8091200134
:10092000886080932001D0932D01C0932C016ACF61
:10093000C038D1050CF03ECF33CF3FB7F89480914B
:100940009C0390919D03A0919E03B0919F0326B5B7
:10095000A89B05C02F3F19F00196A11DB11D3FBFF7
:10096000BA2FA92F982F8827BC01CD01620F711DC6
:10097000811D911D42E0660F771F881F991F4A95C0
:10098000D1F708958F929F92AF92BF92CF92DF924C
:10099000EF92FF926B017C010E949D044B015C0170
:1009A000C114D104E104F104B9F00E949D04681956
:1009B00079098A099B09683E73408105910580F396
:1009C00021E0C21AD108E108F10888EE880E83E020
:1009D000981EA11CB11CE4CFFF90EF90DF90CF9048
:1009E000BF90AF909F908F9008950895CF93C1E0EE
:1009F000C827442331F06C2F89E20E9467036C2FD3
:100A000007C0662349F06C2F89E20E94670361E00A
:100A10008BE1CF910C94670361E0EECF8091A0034E
:100A2000811107C08091A1009091A303892B80932D
:100A3000A1008091A00381608093A0030895FC0130
:100A400001900020E9F73197AF01481B590BBC0119
:100A50008CEA93E00C94A3018F929F92AF92BF9285
:100A60000F931F93CF93DF93CDB7DEB7A1970FB648
:100A7000F894DEBF0FBECDBF19A2423008F44AE0A1
:100A80008E010F5D1F4F842E912CB12CA12CA5013E
:100A900094010E94D30EE62FB901CA01EA30F4F4A2
:100AA000E05DD801EE938D01232B242B252B79F7C4
:100AB00090E080E0109719F0CD010E941F05A196EB
:100AC0000FB6F894DEBF0FBECDBFDF91CF911F915F
:100AD0000F91BF90AF909F908F900895E95CE1CF08
:100AE000CF93DF930E941F05EC018CE292E00E94FD
:100AF0001F058C0F9D1FDF91CF9108958091A0035A
:100B000080FF24C082E00E943E03209103023091C6
:100B10000402220F331F41E050E0019711F050E032
:100B200040E0242B352B3093040220930302809164
:100B30000302909104028115904809F054C08091FD
:100B40009603811150C081E0809396038091150235
:100B5000823008F47CC08091A00381FF6DC083E0E7
:100B60000E943E032091010230910202220F331FA6
:100B700041E050E0019711F050E040E0242B352B8C
:100B800030930202209301028091010290910202AF
:100B90008115904829F480919403882309F449C071
:100BA00080910102909102028F3F9F4709F044C05B
:100BB00080919403882309F43FC01092940380919C
:100BC000A0038D7F8093A00380919503882309F46F
:100BD0004BC08091960381112FC01092950381E044
:100BE0008093930329C080910302909104028F3F68
:100BF0009F4709F0ABCF80919603882309F4A6CFD5
:100C0000109296038091A0038E7F8093A003809121
:100C10009503882351F080919403811197CF10920E
:100C2000950381E08093930391CF81E08093AB03A0
:100C30008DCF81E08093940380919603882339F0CF
:100C400080919403882319F081E08093950380912B
:100C5000A00381110DC08091A100887F8093A10025
:100C60008FE292E00C94700581E080939203E4CFD0
:100C700008950C941F05CF92DF92EF92FF92CF93CD
:100C8000DF936C01990FEE08FF08F7FE19C06DE2C3
:100C90008CEA93E00E943902EC0166277727CB01AA
:100CA0006C197D098E099F094AE00E942C058C0F62
:100CB0009D1FDF91CF91FF90EF90DF90CF9008952F
:100CC0004AE0C701B601DF91CF91FF90EF90DF902E
:100CD000CF900C942C05682F70E090E080E04AE003
:100CE0000C942C05CF93DF930E946B06EC018CE2F1
:100CF00092E00E941F058C0F9D1FDF91CF910895F8
:100D0000CF92DF92EF92FF926B017C01C114D1046C
:100D1000E104F10441F00E94490EA70196010E94EE
:100D2000A10E6B017C01C701B601FF90EF90DF902F
:100D3000CF900895CF92DF92EF92FF926B017C01EA
:100D4000C216D306E406F50664F4CA01B9016C19AB
:100D50007D098E099F090E948006C60ED71EE81ED7
:100D6000F91EC701B601FF90EF90DF90CF90089574
:100D70002F923F924F925F926F927F928F929F92AB
:100D8000AF92BF92CF92DF92EF92FF920F931F9399
:100D9000CF93DF9300D000D000D01F92CDB7DEB745
:100DA0008A87698761E08DE00E94670349856A85CB
:100DB00081E00E94F60465E670E080E090E00E9429
:100DC0008006312C212C6C337105810591050CF0C6
:100DD00059C010E000E0312C212C24E2E22EF12C4D
:100DE00039E2C32ED12C9701201B310B2B3031055A
:100DF00014F02AE030E02F5F3F4F032E000C440B2D
:100E0000550B65E070E080E090E00E949A062B01AF
:100E10009601201B310B261B370B2B30310514F0AC
:100E20002AE030E02F5F3F4F032E000C440B550BA0
:100E300065E070E080E090E00E949A064B01B2010C
:100E4000052C000C880B990B0E94C20449856A8509
:100E500080E00E94F604B401092C000C880B990B69
:100E60000E94C20449856A8581E00E94F604040D4F
:100E7000151D080D191D2FEF221A320A0F31110509
:100E80000CF4B1CF21EE31E040E050E068E770E0D3
:100E900080E090E00E949A066B01643971050CF4C1
:100EA00095C065E670E080E090E00E9480066531C4
:100EB0007105810591050CF089C096012552310913
:100EC000032E000C440B550B65E070E080E090E0D1
:100ED0000E949A062B0178876F83072E000C880BDF
:100EE000990B0E94C20410E000E01A82198226E1E8
:100EF00030E0201B310B2B30310514F02AE030E0BC
:100F00002F5F3F4F032E000C440B550B65E070E044
:100F100080E090E00E949A064B012BE130E0201B1C
:100F2000310B261B370B2B30310514F02AE030E053
:100F30002F5F3F4F032E000C440B550B65E070E014
:100F400080E090E00E949A066B837C838D839E8371
:100F500049856A8580E00E94F604B401092C000CE2
:100F6000880B990B0E94C20449856A8581E00E9422
:100F7000F6042B813C81B901330F880B990B0E9439
:100F8000C204080D191D8B819C81080F191F29812E
:100F90003A812F5F3F4F3A832983013111050CF4C9
:100FA000A6CFC418D508C01AD10A8F819885883772
:100FB00091052CF498E7C916D1040CF4BEC0B60113
:100FC000DD0C880B990B0E94C20408C0B601DD0C31
:100FD000880B990B0E94C2041A82198260E08DE08E
:100FE0000E94670349856A8580E00E94F60465E6F1
:100FF00070E080E090E00E94800668327105810513
:1010000091050CF057C010E000E086E1E82EF12CCD
:101010009BE1C92ED12C9701201B310B2B303105C0
:1010200014F02AE030E02F5F3F4F032E000C440BFA
:10103000550B65E070E080E090E00E949A062B017D
:101040009601201B310B261B370B2B30310514F07A
:101050002AE030E02F5F3F4F032E000C440B550B6E
:1010600065E070E080E090E00E949A064B01B201DA
:10107000052C000C880B990B0E94C20449856A85D7
:1010800081E00E94F604B401092C000C880B990B36
:101090000E94C20449856A8580E00E94F604040D1E
:1010A000151D080D191D2FEF221A320A01311105E5
:1010B0000CF4B1CF8091A9038F5F8093A903398588
:1010C000311146C08A858823E9F18091A8038F5F9A
:1010D0008093A80388E392E00E9439068091A903D7
:1010E0000E946B068BE492E00E943906C1010E94C7
:1010F0003B0689E592E00E94390689819A810E9427
:101100003B068CE292E02A960FB6F894DEBF0FBE43
:10111000CDBFDF91CF911F910F91FF90EF90DF90A6
:10112000CF90BF90AF909F908F907F906F905F9087
:101130004F903F902F900C941F0568E770E080E07F
:1011400090E041CF8091A7038F5F8093A703C2CF28
:101150008091A6038F5F8093A603BCCF1F920F924E
:101160000FB60F9211240BB60F922F933F934F930C
:101170005F936F937F938F939F93AF93BF93EF93FF
:10118000FF938CEA93E00E941702FF91EF91BF91C9
:10119000AF919F918F917F916F915F914F913F910F
:1011A0002F910F900BBE0F900FBE0F901F901895B0
:1011B0001F920F920FB60F9211240BB60F922F931E
:1011C0008F939F93EF93FF93E091BC03F091BD0346
:1011D0008081E091C203F091C30382FD1DC0908124
:1011E0008091C5038F5F8F732091C603821741F0F2
:1011F000E091C503F0E0E455FC4F958F8093C50363
:10120000FF91EF919F918F912F910F900BBE0F90B7
:101210000FBE0F901F9018958081F2CF1F920F92F2
:101220000FB60F9211242F933F938F939F93AF93F9
:10123000BF938091980390919903A0919A03B091E4
:101240009B033091970323E0230F2D3758F5019628
:10125000A11DB11D20939703809398039093990348
:10126000A0939A03B0939B0380919C0390919D035C
:10127000A0919E03B0919F030196A11DB11D809383
:101280009C0390939D03A0939E03B0939F03BF91F3
:10129000AF919F918F913F912F910F900FBE0F9023
:1012A0001F90189526E8230F0296A11DB11DD2CFDD
:1012B0001F920F920FB60F9211240BB60F922F931D
:1012C0003F934F935F936F937F938F939F93AF93CE
:1012D000BF93EF93FF93E0911302F09114021995DD
:1012E000FF91EF91BF91AF919F918F917F916F91FE
:1012F0005F914F913F912F910F900BBE0F900FBEBA
:101300000F901F9018951F920F920FB60F921124F5
:101310000BB60F922F933F934F935F936F937F93EF
:101320008F939F93AF93BF93EF93FF93E09111023D
:10133000F09112021995FF91EF91BF91AF919F919A
:101340008F917F916F915F914F913F912F910F906E
:101350000BBE0F900FBE0F901F9018951F920F920B
:101360000FB60F9211240BB60F922F933F934F930A
:101370005F936F937F938F939F93AF93BF93EF93FD
:10138000FF93E0910702F09108021995FF91EF9108
:10139000BF91AF919F918F917F916F915F914F918D
:1013A0003F912F910F900BBE0F900FBE0F901F908B
:1013B00018951F920F920FB60F9211240BB60F9231
:1013C0002F933F934F935F936F937F938F939F934D
:1013D000AF93BF93EF93FF93E0910502F091060264
:1013E0001995FF91EF91BF91AF919F918F917F914F
:1013F0006F915F914F913F912F910F900BBE0F9086
:101400000FBE0F901F9018951F920F920FB60F925C
:1014100011240BB60F922F933F934F935F936F93CB
:101420007F938F939F93AF93BF93EF93FF93E0913D
:101430000F02F09110021995FF91EF91BF91AF91BA
:101440009F918F917F916F915F914F913F912F91DC
:101450000F900BBE0F900FBE0F901F9018951F920C
:101460000F920FB60F9211240BB60F922F933F934A
:101470004F935F936F937F938F939F93AF93BF939C
:10148000EF93FF93E0910D02F0910E021995FF91F9
:10149000EF91BF91AF919F918F917F916F915F91EC
:1014A0004F913F912F910F900BBE0F900FBE0F9059
:1014B0001F9018951F920F920FB60F9211240BB622
:1014C0000F922F933F934F935F936F937F938F93DD
:1014D0009F93AF93BF93EF93FF93E0910B02F09133
:1014E0000C021995FF91EF91BF91AF919F918F9150
:1014F0007F916F915F914F913F912F910F900BBE14
:101500000F900FBE0F901F9018951F920F920FB65D
:101510000F9211240BB60F922F933F934F935F932B
:101520006F937F938F939F93AF93BF93EF93FF93AB
:10153000E0910902F0910A021995FF91EF91BF9194
:10154000AF919F918F917F916F915F914F913F915B
:101550002F910F900BBE0F900FBE0F901F901895FC
:101560001F920F920FB60F9211240BB60F922F936A
:101570003F934F935F936F937F938F939F93AF931B
:10158000BF93EF93FF93E091A403F091A503199506
:10159000FF91EF91BF91AF919F918F917F916F914B
:1015A0005F914F913F912F910F900BBE0F900FBE07
:1015B0000F901F901895789484B5826084BD84B58F
:1015C000816084BD85B5826085BD85B5816085BD3E
:1015D00080916E00816080936E00109281008091F6
:1015E000810082608093810080918100816080937E
:1015F0008100809180008160809380008091B100A3
:1016000084608093B1008091B00081608093B000CD
:10161000809191008260809391008091910081601F
:1016200080939100809190008160809390008091E0
:10163000A10082608093A1008091A10081608093CD
:10164000A1008091A00081608093A0008091210181
:10165000826080932101809121018160809321012A
:101660008091200181608093200180917A008460C4
:1016700080937A0080917A00826080937A008091D2
:101680007A00816080937A0080917A0080688093EC
:101690007A001092C10061E089E20E94950361E046
:1016A0008BE10E94950361E08DE00E94950361E06B
:1016B0008BE00E94950361E087E00E94950361E062
:1016C00086E00E94950361E089E20E94670361E081
:1016D0008BE10E94670360E08DE00E9467036FEF7B
:1016E00070E08BE00E94C6036FEF70E087E00E941D
:1016F000C6036FEF70E086E00E94C60361E089E2F6
:101700000E946703E091BC03F091BD0382E08083F7
:10171000E091B803F091B9031082E091BA03F0911F
:10172000BB038FEC80831092C403E091C003F0915F
:10173000C10386E08083E091BE03F091BF03808106
:1017400080618083E091BE03F091BF038081886057
:101750008083E091BE03F091BF0380818068808325
:10176000E091BE03F091BF0380818F7D808386E688
:1017700092E00E9470058CE892E00E94390689E2AE
:101780000E94720689EA92E00E9439068BE10E946B
:10179000720686EC92E00E94700580EE92E00E9454
:1017A00070056AE070E080E090E00E94C20462E0B0
:1017B00082E00E94950381E0809315021092A000C0
:1017C00090E19093A1008093A30320E43FE1309344
:1017D000A2032093A1033093A7002093A600909129
:1017E000A100987F9093A1009091A10091609093A7
:1017F000A1002EE735E03093A5032093A403809346
:10180000720078948091A1009091A303892B80931A
:10181000A1008091A100887F8093A1001092A00375
:101820008EE095E0909306028093050280916A0015
:101830008C7F826080936A00EC9A82E991E09093B9
:1018400008028093070280916A00837F88608093FA
:101850006A00ED9A8091A100887F8093A100109288
:10186000A0036AE070E080E090E00E94C204D0E053
:10187000C0E08CEA93E00E940102892B49F08CEAD7
:1018800093E00E94DF01DC2FCC27C80FD91FF1CFD6
:1018900089EF92E00E943906CE010E943B068CE25D
:1018A00092E00E941F05BE01DD0F880B990B6115A8
:1018B00071058105910511F00E94980E6AE070E0B3
:1018C00080E090E00E94C20489E093E00E947005ED
:1018D0008AE293E00E9439068091A8030E946B0679
:1018E0008EE293E00E9439068091A7030E946B0666
:1018F0008EE293E00E9439068091A6030E946B0657
:1019000082E393E00E94700580EE92E00E947005F1
:1019100001E08091AB03882309F430C11092AB033E
:101920001092AA036FEF70E08BE00E94C6036FEF86
:1019300070E087E00E94C60370E060E086E00E94ED
:10194000C6031092A90364E170E080E090E00E9479
:10195000C20470E060E08BE00E94C6036FEF70E0AD
:1019600087E00E94C6036FEF70E086E00E94C60326
:101970008091A9038A3208F0C1C065E670E080E07A
:1019800090E00E94800665317105810591050CF09B
:101990009EC061E081E00E94B80622EC31E040E0A8
:1019A00050E06AEF70E080E090E00E949A066B01E0
:1019B000EB0165E670E080E090E00E948006653112
:1019C0007105810591050CF092C065E670E080E03C
:1019D00090E00E94800611E0673471058105910551
:1019E0000CF010E065E670E080E090E00E94800678
:1019F000BB24B39465317105810591050CF0B12CC0
:101A0000CB30D1050CF446C09E0125503109032E80
:101A1000000C440B550B65E070E080E090E00E9404
:101A20009A066B01C61BD70B9E01CB30D10514F073
:101A30002AE030E0032E000C440B550B65E070E00B
:101A400080E090E00E949A062B01B601DD0C880B25
:101A5000990B0E94C2044B2D612F81E00E94F60475
:101A6000B201052C000C880B990B0E94C2044B2D6F
:101A7000612F80E00E94F604C419D50965E670E084
:101A800080E090E00E948006653171058105910536
:101A90000CF49BCF8AE293E00E9439068091A80360
:101AA0000E946B068EE293E00E9439068091A703A4
:101AB0000E946B068EE293E00E9439068091A60395
:101AC0000E946B0682E393E00E94700551CF65E6A9
:101AD00070E080E090E00E94800667347105810527
:101AE000910514F460E056CF60E080E054CFB60179
:101AF000DD0C880B990B0E94C204CCCF8091AA0305
:101B000081111EC00093AA0386E393E00E94390668
:101B10008091A8030E9472068DE493E00E9439062A
:101B20008091A7030E94720684E693E00E94390622
:101B30008091A6030E94720687E793E00E947005D9
:101B40008091AB0381111AC061E089E20E946703B2
:101B50006FEF70E08BE00E94C60370E060E087E00A
:101B60000E94C60360E870E086E00E94C60364E657
:101B700070E080E090E00E94C204E2CF6FEF70E07E
:101B80008BE00E94C60370E060E087E00E94C6031D
:101B90006FEF70E086E00E94C6030E94A602B9CEF5
:101BA000ECEAF3E01382128288EE93E0A0E0B0E06A
:101BB00084839583A683B7838EE192E091838083AB
:101BC00085EC90E09587848784EC90E09787868702
:101BD00080EC90E0918B808B81EC90E0938B828BFA
:101BE00082EC90E0958B848B86EC90E0978B868BD3
:101BF000118E128E138E148E08958F929F92AF9233
:101C0000BF92CF92DF92EF92FF92CF93DF93EC01DE
:101C1000688179818A819B816115710581059105B2
:101C200021F464E279ED8BE597E02DE133EF41E0BB
:101C300050E00E94A10E49015A019B01AC01A7EAA4
:101C4000B1E40E94C00E6B017C01ACEEB4EFA501C3
:101C500094010E94CE0EC60ED71EE81EF91EF7FE96
:101C600006C081E0C81AD108E10880E8F80AC882F5
:101C7000D982EA82FB82C701B6019F77DF91CF91BB
:101C8000FF90EF90DF90CF90BF90AF909F908F909C
:101C900008958F929F92AF92BF92CF92DF92EF9270
:101CA000FF92609116027091170280911802909134
:101CB0001902611571058105910521F464E279ED40
:101CC0008BE597E02DE133EF41E050E00E94A10E5B
:101CD00049015A019B01AC01A7EAB1E40E94C00E80
:101CE0006B017C01ACEEB4EFA50194010E94CE0E15
:101CF000C60ED71EE81EF91EF7FE06C081E0C81A00
:101D0000D108E10880E8F80AC0921602D0921702C2
:101D1000E0921802F0921902C701B6019F77FF9076
:101D2000EF90DF90CF90BF90AF909F908F900895ED
:101D30006093160270931702809318029093190211
:101D40000895052E97FB1EF400940E94B80E57FDCF
:101D500007D00E94D30E07FC03D04EF40C94B80EAB
:101D600050954095309521953F4F4F4F5F4F0895C7
:101D700090958095709561957F4F8F4F9F4F0895F7
:101D80000E94F50EA59F900DB49F900DA49F800D0D
:101D9000911D11240895B7FF0C94C00E0E94C00E2F
:101DA000821B930B0895A1E21A2EAA1BBB1BFD01F7
:101DB0000DC0AA1FBB1FEE1FFF1FA217B307E4072A
:101DC000F50720F0A21BB30BE40BF50B661F771F82
:101DD000881F991F1A9469F7609570958095909562
:101DE0009B01AC01BD01CF010895A29FB001B39F3B
:101DF000C001A39F700D811D1124911DB29F700D14
:101E0000811D1124911D0895EE0FFF1F881F8BBFA8
:0C1E10000790F691E02D1994F894FFCF94
:101E1C0001FFFFFFFFF504F504F504F504F504F5E7
:101E2C0004F504F504010100000000000000390273
:101E3C00A301D00186020102DF01F3010D0A007437
:101E4C00342073746F707000746F74616C206B65E8
:101E5C0079707265737365733A20003B20202062A1
:101E6C006F756E6365733A20002C2020687370695F
:101E7C006B65733A200057656C636F6D6520746FEA
:101E8C0020746865206B65792D6465626F756E636F
:101E9C0065207465737465722E2E2E004F757470E8
:101EAC007574312069732067656E65726174656441
:101EBC00206F6E2070696E20004F757470757432CF
:101ECC002069732067656E657261746564206F6E3E
:101EDC002070696E20002C206B65797072657373AD
:101EEC0020697320616374697665206C6F772E00AE
:101EFC0020707265737320627574746F6E2030205D
:101F0C00746F2073746172740052616E646F6D2013
:101F1C007365656420697320002370726573736543
:101F2C00732028706230202F20706231202F2064A3
:101F3C006F75626C65293A20200020282000202F24
:101F4C002000202920002320707265737365732094
:101F5C006F6E204F7574707574313A2000232070A9
:101F6C00726573736573206F6E204F757470757422
:101F7C00323A20002320646F75626C6520707265A4
:101F8C00737365733A20002A2A2A2A2A2A2A2A6677
:101F9C00696E69736865642A2A2A2A2A2A2A2A2AD7
:021FAC00000033
:00000001FF
