:100000000C9426010C943A010C943A010C943A0198
:100010000C943A010C943A010C943A010C943A0174
:100020000C943A010C943A010C943A010C943A0164
:100030000C943A010C943A010C943A010C943A0154
:100040000C943A010C943A010C943A010C943A0144
:100050000C943A010C943A010C943A010C94E70187
:100060000C943A010C943A010C943A010C943A0124
:100070000C943A010C943A010C943A010C943A0114
:100080000C943A010C943A010C943A010C9431020C
:100090000C943A010C943A010C943A010C943A01F4
:1000A0000C943A010C943A010C943A010C943A01E4
:1000B0000C943A010C943A010C943A010C943A01D4
:1000C0000C943A010C943A010C943A010C943A01C4
:1000D0000C943A010C943A010C943A010C943A01B4
:1000E0000C943A010C9495010C946F010C946C01E2
:1000F0000C949F010C9479010C9487010C94640179
:100100000C945A010C948D010C94A3010C94910150
:100110000C949A010C949B010C9460010C9468015E
:100120000C9475010C9483010C947F010000200055
:100130002300260029002C002F00320000010000BF
:1001400003010601090100002100240027002A0004
:100150002D003000330001010000040107010A01F5
:1001600000002200250028002B002E003100340062
:1001700002010000050108010B0105050505070541
:1001800008080808020202020A0A08080404040413
:10019000010101010101010103030303030303033F
:1001A000040707070C0C0C0C0C0C0C0C02020202CE
:1001B00006060606060606060B0B0B0B0B0B0B0BB7
:1001C0000102102020080810204010204080020169
:1001D000020108040201010204081020408080404E
:1001E000201008040201800402018040201008044D
:1001F00002010804020101020408102040800102EB
:1002000004081020408000000A0B02090C0D0E08A3
:1002100007030401000000000000000000000000CF
:1002200000000000000000000000000000000000CE
:10023000000012111000000000000000000000008B
:1002400000000000000000000000000011241FBE9C
:10025000CFEFD1E2DEBFCDBF00E00CBF22E0A0E0D7
:10026000B2E001C01D92AF30B207E1F70E945C021C
:100270000C94D6030C9400008150823108F05AC0CF
:10028000E82FF0E08827E85BFE4F8F4F0C94CE03F9
:1002900068016C015A01600164019A016F017501E6
:1002A00079017F01830187018D0191019A019501F7
:1002B0009B019F01809180008F778093800008953B
:1002C000809180008F7DF9CF80918000877FF5CF6E
:1002D00084B58F7784BD089584B58F7DFBCF8091E1
:1002E000B0008F778093B00008958091B0008F7D2B
:1002F000F9CF809190008F7780939000089580913E
:1003000090008F7DF9CF80919000877FF5CF80910D
:10031000A0008F778093A00008958091A0008F7D2A
:10032000F9CF8091A000877FF5CF809120018F7752
:10033000809320010895809120018F7DF9CF8091D5
:100340002001877FF5CFCF93DF93E9E0F2E084913E
:10035000E3ECF1E0D491EDE7F1E0C491CC2399F026
:1003600081110E943C01EC2FF0E0EE0FFF1FE45DD5
:10037000FE4FA591B491EC91ED2329F080910102FB
:100380008F5F80930102809100028F5F8093000253
:100390008A30D0F0809101026AE00E94C203682F87
:1003A00070E090E080E00E94610320E030E040E0F7
:1003B0005FE30E945C0387FF03C081E08093050236
:1003C0001092010210920002DF91CF9108951F92C6
:1003D0000F920FB60F9211242F933F938F939F93F9
:1003E000AF93BF9380910B0290910C02A0910D02EC
:1003F000B0910E0230910A0223E0230F2D3758F5F9
:100400000196A11DB11D20930A0280930B029093C7
:100410000C02A0930D02B0930E02809106029091FF
:100420000702A0910802B09109020196A11DB11D19
:100430008093060290930702A0930802B0930902EA
:10044000BF91AF919F918F913F912F910F900FBED0
:100450000F901F90189526E8230F0296A11DB11D3D
:10046000D2CF1F920F920FB60F9211240BB60F929C
:100470002F933F934F935F936F937F938F939F93AC
:10048000AF93BF93EF93FF93E0910202F0910302C9
:100490001995FF91EF91BF91AF919F918F917F91AE
:1004A0006F915F914F913F912F910F900BBE0F90E5
:1004B0000FBE0F901F901895789484B5826084BD0C
:1004C00084B5816084BD85B5826085BD85B5816058
:1004D00085BD80916E00816080936E0010928100D6
:1004E0008091810082608093810080918100816091
:1004F0008093810080918000816080938000809152
:10050000B10084608093B1008091B00081608093DD
:10051000B000809191008260809391008091910061
:100520008160809391008091900081608093900021
:100530008091A10082608093A1008091A1008160E0
:100540008093A1008091A00081608093A0008091A1
:10055000210182608093210180912101816080933B
:1005600021018091200181608093200180917A0097
:10057000846080937A0080917A00826080937A0010
:1005800080917A00816080937A0080917A008068FF
:1005900080937A001092C100CDECD1E0FE0124914D
:1005A00007E811E0F8018491882399F090E0880F22
:1005B000991FFC01EA5BFE4FA591B491FC01E05A42
:1005C000FE4F859194918FB7F8949C91292B2C9391
:1005D0008FBFE3ECF1E02491EDE7F1E08491882313
:1005E000C9F090E0880F991FFC01EA5BFE4FA591CE
:1005F000B491FC01E05AFE4F459154919FB7F89495
:100600008C91E22FE0958E238C93DA018C91E82374
:10061000EC939FBF80E1809391001092900080E462
:100620009FE1909397008093960081E180939100E1
:1006300083EA91E0909303028093020281E0809329
:100640007100AA24A39493E1C92E92E0D92E20E050
:10065000E22E20E0F22E80910502882329F11092EB
:100660000502809104028A2580930402909004027E
:10067000F6018491FE01B490F80184908820A1F0E5
:1006800081110E943C01E82DF0E0EE0FFF1FE05ABF
:10069000FE4FA591B4918FB7F8949C9191100AC028
:1006A000B094B922BC928FBFE114F104A1F20E9470
:1006B0000000D1CFB92AF6CF0E949E0308F481E052
:1006C0000895E89409C097FB3EF490958095709545
:1006D00061957F4F8F4F9F4F9923A9F0F92F96E98E
:1006E000BB279395F695879577956795B795F11103
:1006F000F8CFFAF4BB0F11F460FF1BC06F5F7F4FA0
:100700008F4F9F4F16C0882311F096E911C07723B1
:1007100021F09EE8872F762F05C0662371F096E8BA
:10072000862F70E060E02AF09A95660F771F881F89
:10073000DAF7880F9695879597F90895990F00082D
:10074000550FAA0BE0E8FEEF16161706E807F907A3
:10075000C0F012161306E407F50798F0621B730B3E
:10076000840B950B39F40A2661F0232B242B252BBF
:1007700021F408950A2609F4A140A6958FEF811D62
:10078000811D0895991B79E004C0991F961708F000
:10079000961B881F7A95C9F780950895EE0FFF1F65
:1007A000881F8BBF0790F691E02D1994F894FFCF26
:00000001FF
