:020000001128C5
:08000800232803398207C134EB
:10001000C934D134D934831688018312C1308800A1
:100020000800332074208F19132883120D0805202F
:1000300088000000081508191B2809088C003A20C0
:100040000F18202812280B1D09009200030E9300A0
:100050000F1844280F19A8289028130E8300920E19
:10006000120E0B1109008F01831286178316861357
:10007000051608008F140F1409309000013091000C
:10008000900360208B16090083123630810090089F
:1000900003194C2890035328910803195C289103F5
:1000A00086172D285C2803148C0C031C8613031858
:1000B00086178F1C8B162D2886178B120F102D2854
:1000C000831281016400831607308100831281014D
:1000D00083160F3081006400013081008312861383
:1000E000303081000B11080083128F150930900009
:1000F000013091008D018F120F128101640083166F
:10010000073081008312810183160F308100640063
:10011000383081008312FF3081000B118B160900EB
:100120008312051AA5280F15810164008316073074
:1001300081008312810183160F3081006400023038
:1001400081008312813081002D28FF3081002D280D
:1001500064008316073081008312810164008316D6
:10016000073081008312810183160F308100640003
:1001700001308100831205088E00363081000508A9
:100180000E0610390319C62805088E0090080319B9
:10019000CB28900BD1280E1E8F168B120F118F11AA
:0C01A0002D2803100E1A03148D0C2D28BE
:00000001FF
