:020000000528D1
:08000800042883018316850121
:10001000FF3086018312562063201C204B2038308D
:100020008600851585110F3073200130732006304E
:10003000732080307320080057306A2065306A20B2
:100040006C306A2063306A206F306A206D306A201D
:1000500065306A2020306A2074306A206F306A2050
:1000600020306A2048306A2061306A2064306A207B
:1000700065306A2073306A2020306A2030306A2070
:100080002E306A2036306A2037306A2069306A2084
:10009000C030732008000030A0008E20FF39031903
:1000A00055286A202008013E4C2855288501383003
:1000B0008600851585110630A300A401A40B5E28D7
:1000C000A30B5E2808000F30732001307320063028
:1000D00073200800A1007C202108860005118514EA
:1000E000851585110800A1007C20210886000511D6
:1000F00085108515851108008316FF308600831250
:1001000085100515851506088511A200A21B7C28FF
:1001100005118316003086008312080082072834F8
:1001200043342934203431343934393439342034A7
:1001300055346E34693476342E3420344834613486
:100140006D346234753472346734203449346E341B
:1001500066346F3472346D346134743469346B34A2
:0C0160002F345434453443344834003408
:00000001FF
