:020000001028C6
:02000800552879
:10002000A001003086008316860183121C20342034
:1000300020184628860A16288901060A8800831691
:10004000081583122A20890A091F222883160811FD
:1000500083120800831655308900AA30890088145D
:1000600088183028831208008901060A3D202018CC
:100070000800890A091F3628080083160814081882
:100080003F2883128806031D201408004B20860198
:100090005A208609482883168730810083128101FF
:1000A000A0308B000830900008000B1990038B01E2
:1000B0008B1609001008031D5A280830900008000C
:00000001FF
