:100000009D28000000000000000000340630990028
:100010009A019A0B0928990B09280034FF308500B2
:10002000F0308316860083128601F7309700170898
:10003000860000000000000000000000000006082C
:1000400098007039703A031D2C280314970C03187C
:100050001728900190036D28100A031D6D2898172A
:10006000D7301802003003199000DB30180201303D
:1000700003199000DD301802023003199000DE30C1
:100080001802033003199000B73018020430031926
:100090009000BB301802053003199000E7301802B9
:1000A000063003199000EB30180207300319900056
:1000B000ED301802083003199000EE3018020930B4
:1000C00003199000BD301802803003199000BE3033
:1000D000180281300319900012147F30860080309E
:1000E000831686008312E6288207C034F934A434CC
:1000F000B034993492348234F834803498340030F7
:10010000961D1308161D1408961C150874209618C1
:100110008B28151CFF3096198F28921CBF30860043
:10012000160885000314960DFD30161E960001205A
:10013000FF3085007F3086000034FF308316810059
:1001400083127F3086008030831686008312FF3052
:100150008500F03083168500831290019003920190
:10016000FD309600930194019501C0309100FF305D
:100170008500F030831686008312FE308600FD3045
:10018000861F11148600FB30861F91148600F730FD
:10019000861F111586000000861F91157F3086008E
:1001A0008030831686008312FF308500F03083167E
:1001B00085008312921181010000851000008514D2
:1001C0000108031D9215FF3062000E281218EC285A
:1001D0007F207F207F20E3281210901F102992108B
:1001E000101C0329940A06301407831CFA28940172
:1001F000950A0F29151C0F2903301402031D0F291E
:10020000940195010F299403941F0F29093094003C
:100210009503951F0F290130950002309400E328C3
:10022000100893009214140898000310980D980D6C
:10023000980D140D9807130898076430151898073F
:10024000921929297F30981F35299800073093008B
:1002500035291808031D2E29930A352998037F3064
:10026000981F352998000830930011089700FF3037
:1002700099000310980D990D0314980D990D031012
:10028000970D980D990D14309A0006309B00990C2B
:10029000980C970C03184F290000051051290514DC
:0E02A00051299B0B512900009A0B4529E32898
:00000001FF
