:100000000C9437010C9468010C9468010C946801FD
:100010000C9468010C9468010C9468010C946801BC
:100020000C9468010C9468010C9468010C946801AC
:100030000C9468010C9468010C9468010C9468019C
:100040000C9468010C9468010C9468010C9468018C
:100050000C9468010C9468010C9468010C94A5053B
:100060000C9468010C9419060C94EF050C9468012B
:100070000C9468010C9468010C9468010C9468015C
:100080000C9468010C9468010C9468010C944F0660
:100090000C9468010C9468010C9468010C9468013C
:1000A0000C9468010C9468010C9468010C9468012C
:1000B0000C9468010C9468010C9468010C9468011C
:1000C0000C9468010C9468010C9468010C9468010C
:1000D0000C9468010C9468010C9468010C946801FC
:1000E0000C9468010C9473030C94D3010C94660275
:1000F0000C9429030C9400030C9404030C94EC025C
:100100000C941F030C94B2070C94FC020C9415037E
:100110000C94E7020C940B030C9408030C94310329
:100120000C941B030C942D030C94B0010C94190235
:100130000C946A010C94BF010C9423030C943703B4
:100140000C9411030C94E1010C943B030000220079
:10015000250028002B002E00310034000201000091
:10016000050108010B0100002100240027002A00DE
:100170002D003000330001010000040107010A01D5
:10018000000020002300260029002C002F00320050
:100190000001000003010601090105050505070529
:1001A00008080808020202020A0A080804040404F3
:1001B000010101010101010103030303030303031F
:1001C000040707070C0C0C0C0C0C0C0C02020202AE
:1001D00006060606060606060B0B0B0B0B0B0B0B97
:1001E0000102102020080810204010204080020149
:1001F000020108040201010204081020408080402E
:10020000201008040201800402018040201008042C
:1002100002010804020101020408102040800102CA
:1002200004081020408000000A0B02090C0D0E0883
:1002300007030401000000000000000000000000AF
:1002400000000000000000000000000000000000AE
:10025000000012111000000000000000000000006B
:10026000000000000000000000000000B2071124A0
:100270001FBECFEFD1E2DEBFCDBF00E00CBF22E05A
:10028000A2E4B2E001C01D92AA3FB207E1F712E07A
:10029000A0E0B2E0EEEAF6E100E00BBF02C007909A
:1002A0000D92A234B107D9F711E0C7E3D1E000E025
:1002B00006C021970109802FFE010E943709C6332D
:1002C000D10780E00807A9F70E947A060C94550B25
:1002D0000C940000AF92BF92CF92DF92EF92FF9208
:1002E0000F931F93CF93DF936C017B018B01040F5E
:1002F000151FEB015E01AE18BF08C017D10759F0FA
:100300006991D601ED91FC910190F081E02DC6013B
:100310001995892B79F7C501DF91CF911F910F9125
:10032000FF90EF90DF90CF90BF90AF900895CF9364
:10033000DF93FC01448155816081718189E592E000
:100340000E946A01EC0142E050E06AE172E089E556
:1003500092E00E946A018C0F9D1FDF91CF9108955A
:10036000FC01538D448D252F30E0842F90E0821BBB
:10037000930B541710F0CF96089501970895FC0140
:10038000918D828D981761F0A28DAE0FBF2FB11D98
:100390005D968C91928D9F5F9F73928F90E00895F0
:1003A0008FEF9FEF0895FC01918D828D981731F0AA
:1003B000828DE80FF11D858D90E008958FEF9FEFFE
:1003C0000895FC01918D228D892F90E0805C9F4FD4
:1003D000821B91098F739927089589E592E00E9405
:1003E000E10121E0892B09F420E0822F0895FC012E
:1003F000A48DA80FB92FB11DA35ABF4F2C91848D86
:1004000090E001968F739927848FA689B7892C93E2
:10041000A089B1898C91837080648C93938D848D35
:10042000981306C00288F389E02D80818F7D808338
:100430000895EF92FF920F931F93CF93DF93EC01F8
:1004400081E0888F9B8D8C8D98131AC0E889F9897B
:10045000808185FF15C09FB7F894EE89FF8960837E
:10046000E889F98980818370806480839FBF81E0FF
:1004700090E0DF91CF911F910F91FF90EF90089541
:10048000F62E0B8D10E00F5F1F4F0F731127E02E1C
:100490008C8D8E110CC00FB607FCFACFE889F98954
:1004A000808185FFF5CFCE010E94F701F1CFEB8D62
:1004B000EC0FFD2FF11DE35AFF4FF0829FB7F89428
:1004C0000B8FEA89FB8980818062CFCFCF93DF9346
:1004D000EC01888D8823B9F0AA89BB89E889F9895C
:1004E0008C9185FD03C0808186FD0DC00FB607FC91
:1004F000F7CF8C9185FFF2CF808185FFEDCFCE01C4
:100500000E94F701E9CFDF91CF91089580E090E05C
:10051000892B29F00E94ED0181110E94000080E0EA
:1005200090E0892B49F080E090E0892B29F00E942F
:10053000000081110E94000080E090E0892B49F0CA
:1005400080E090E0892B29F00E94000081110E9438
:10055000000080E090E0892B49F080E090E0892B5A
:1005600029F00E94000081110C9400000895282FAA
:1005700030E0F901EA5DFD4F9491F901E052FE4F40
:10058000449126563E4FF9012491222309F477C065
:10059000992311F191509231F8F4E92FF0E0882776
:1005A000EB52FD4F8F4F0C94370904030803E70209
:1005B000FC020003EC020B03110315031B031F03D2
:1005C000230329032D03EC02310337033B038091FE
:1005D00080008F7780938000E22FF0E0EE0FFF1F06
:1005E000E058FE4FA591B491EC91E42381E090E0B6
:1005F00009F047C080E00895809180008F7DEACFA8
:1006000080918000877FE6CF84B58F7784BDE4CF6B
:1006100084B58F7DFBCF8091B0008F778093B00041
:10062000DBCF8091B0008F7DF9CF809190008F77E4
:1006300080939000D1CF809190008F7DF9CF8091F1
:100640009000877FF5CF8091A0008F778093A000E6
:10065000C3CF8091A0008F7DF9CF8091A000877FCC
:10066000F5CF809120018F7780932001B5CF8091C5
:1006700020018F7DF9CF80912001877FF5CF80E029
:1006800090E00895CF93DF9390E0FC01E052FE4F9D
:10069000249186569E4FFC0184918823D1F090E0EE
:1006A000880F991FFC01EA59FE4FA591B491FC01F6
:1006B000E45BFE4FC591D49161110EC09FB7F894D1
:1006C0008C91E22FE0958E238C932881E223E8839E
:1006D0009FBFDF91CF9108958FB7F894EC91E22BF3
:1006E000EC938FBFF6CF8F929F92AF92BF92CF9233
:1006F000DF92EF92FF9283E00E94B7027C0184E0D8
:100700000E94B7029C0180914702811115C081E0CF
:10071000E114F10409F480E090910102981309C0FA
:1007200081E02115310509F480E0909100029817CD
:1007300019F081E08093470280914702882309F4F1
:1007400063C0EF2829F0909146029F5F9093460284
:10075000232B29F0809145028F5F80934502809181
:1007600044028F5F80934402893108F44DC0609148
:10077000460270E090E080E00E940E0820E030E049
:1007800048EC51E40E94C0084B015C011092460203
:100790006091450270E090E080E00E940E0820E049
:1007A00030E048EC51E40E94C0086B017C011092DB
:1007B000450280910102882381F12DEC3CEC4CE450
:1007C0005EE3C501B4010E94090887FD1092010291
:1007D00080910002882309F449C02DEC3CEC4CE4E4
:1007E0005EE3C701B6010E94090887FD109200026E
:1007F000109244028091000290910102992309F421
:100800004AC0811110924702FF90EF90DF90CF9085
:10081000BF90AF909F908F9008952DEC3CEC4CE4EE
:100820005FE3C501B4010E94320918168CF680916D
:100830004302811106C081E08093010280934F0240
:10084000C7CF2DEC3CEC4CE45FE3C701B6010E943E
:10085000320918160CF0BCCF81E08093010280931E
:10086000000280934B0210924302B2CF2DEC3CEC7D
:100870004CE45FE3C701B6010E94320918160CF080
:10088000B7CF809143028111B3CF81E08093000202
:1008900080934D02ADCF8111B7CF8091430281117A
:1008A000B3CF81E080934302AFCF0F931F93CF93D9
:1008B000DF93EC0188819981009759F02A813B816F
:1008C0002617370730F081E0DF91CF911F910F910C
:1008D00008958B016F5F7F4F0E94640A009759F063
:1008E000998388831B830A832C813D81232B59F7AD
:1008F000FC011082E8CF80E0E7CFEF92FF920F93E8
:100900001F93CF93DF936115710541F480E0DF9170
:10091000CF911F910F91FF90EF90089541155105D0
:10092000B1F07B01EC010C811D81040F151FB80192
:100930000E945504882351F3288139818C819D813F
:10094000B701820F931F0E944E0B1D830C8381E021
:10095000DECFCF93DF93EC0188819981009711F06E
:100960000E94DB09198218821D821C821B821A8256
:10097000DF91CF910895CF93DF93EC01FB010190BC
:100980000020E9F73197AF01461B570B0E947D0409
:10099000811103C0CE010E94A904CE01DF91CF9145
:1009A0000895CF93DF93EC01FB0144815581608171
:1009B00071810E947D04811103C0CE010E94A904AF
:1009C000CE01DF91CF910895EF92FF920F931F9385
:1009D000CF93DF93EC017B018A01BA010E94550499
:1009E00081110BC0CE010E94A904CE01DF91CF91ED
:1009F0001F910F91FF90EF9008951D830C83B70115
:100A0000888199810E944E0BF0CFEF92FF920F9355
:100A10001F93CF93DF9300D000D000D0CDB7DEB7C7
:100A20008C01862FF80111821082138212821582A6
:100A300014824AE09E012F5F3F4F7901B90190E097
:100A40000E94DF07F70101900020E9F73197AF011D
:100A50004E195F09B701C8010E94E40429960FB638
:100A6000F894DEBF0FBECDBFDF91CF911F910F91E4
:100A7000FF90EF900895FC0180819181009711F023
:100A80000C94DB090895CF93DF93CDB7DEB7689759
:100A90000FB6F894DEBF0FBECDBF60914A02CE0103
:100AA00043960E94050560914C02CE010D960E946E
:100AB000050560914E02CE0107960E9405051A8237
:100AC00019821C821B821E821D8241E050E06DE172
:100AD00072E0CE0101960E94E404BE01695F7F4F7F
:100AE000CE0101960E94D1046FE172E00E94BB0426
:100AF000BE01635F7F4F0E94D1046FE172E00E94EC
:100B0000BB04BE016D5E7F4F0E94D10462E272E0C1
:100B10000E94BB040E949701CE0101960E943B05F2
:100B2000CE0107960E943B05CE010D960E943B0523
:100B3000CE0143960E943B0568960FB6F894DEBF3F
:100B40000FBECDBFDF91CF9108951F920F920FB6C8
:100B50000F9211242F933F938F939F93AF93BF9343
:100B60008091550290915602A0915702B09158027F
:100B70003091540223E0230F2D3758F50196A11D23
:100B8000B11D209354028093550290935602A09376
:100B90005702B09358028091500290915102A09157
:100BA0005202B09153020196A11DB11D80935002D3
:100BB00090935102A0935202B0935302BF91AF9110
:100BC0009F918F913F912F910F900FBE0F901F908B
:100BD000189526E8230F0296A11DB11DD2CF1F92B2
:100BE0000F920FB60F9211240BB60F922F933F93D3
:100BF0004F935F936F937F938F939F93AF93BF9325
:100C0000EF93FF9389E592E00E94F701FF91EF9146
:100C1000BF91AF919F918F917F916F915F914F9114
:100C20003F912F910F900BBE0F900FBE0F901F9012
:100C300018951F920F920FB60F9211240BB60F92B8
:100C40002F938F939F93EF93FF93E0916902F0911D
:100C50006A028081E0916F02F091700282FD1DC0F6
:100C60009081809172028F5F8F732091730282173F
:100C700041F0E0917202F0E0E75AFD4F958F8093CA
:100C80007202FF91EF919F918F912F910F900BBE68
:100C90000F900FBE0F901F9018958081F2CF1F927A
:100CA0000F920FB60F9211240BB60F922F933F9312
:100CB0004F935F936F937F938F939F93AF93BF9364
:100CC000EF93FF93E0914802F09149021995FF914B
:100CD000EF91BF91AF919F918F917F916F915F91B4
:100CE0004F913F912F910F900BBE0F900FBE0F9021
:100CF0001F901895CF93DF93CDB7DEB767970FB6E8
:100D0000F894DEBF0FBECDBF789484B5826084BDF9
:100D100084B5816084BD85B5826085BD85B58160FF
:100D200085BD80916E00816080936E00109281007D
:100D30008091810082608093810080918100816038
:100D400080938100809180008160809380008091F9
:100D5000B10084608093B1008091B0008160809385
:100D6000B000809191008260809391008091910009
:100D700081608093910080919000816080939000C9
:100D80008091A10082608093A1008091A100816088
:100D90008093A1008091A00081608093A000809149
:100DA00021018260809321018091210181608093E3
:100DB00021018091200181608093200180917A003F
:100DC000846080937A0080917A00826080937A00B8
:100DD00080917A00816080937A0080917A008068A7
:100DE00080937A001092C10061E08DE00E9442037E
:100DF00060E083E00E94420360E084E00E944203DE
:100E0000E0916902F0916A0282E08083E0916502DC
:100E1000F09166021082E0916702F09168028FEC17
:100E2000808310927102E0916D02F0916E0286E073
:100E30008083E0916B02F0916C02808180618083FD
:100E4000E0916B02F0916C02808188608083E09178
:100E50006B02F0916C02808180688083E0916B026C
:100E6000F0916C0280818F7D808380E1809391007E
:100E70001092900080E49FE19093970080939600F9
:100E800081E18093910083E793E0909349028093FE
:100E9000480281E0809371001B8A1A8A1D8A1C8A8D
:100EA0001F8A1E8A4AE08E010F5F1F4FB80189E139
:100EB00090E00E94DF07F80101900020E9F73197E8
:100EC000AF01401B510BB801CE0142960E94E404D1
:100ED0001A8219821C821B821E821D8249E050E008
:100EE00064E272E0C8010E94E404BE016E5E7F4FBE
:100EF000C8010E94D1046EE272E00E94BB040E940D
:100F00009701C8010E943B05CE0142960E943B0515
:100F100080914F02882349F080914E028F5F809329
:100F20004E0210924F020E94430580914D02882389
:100F300049F080914C028F5F80934C0210924D02D9
:100F40000E94430580914B02882349F080914A0218
:100F50008F5F80934A0210924B020E9443050E94C9
:100F60008602D6CFE9E5F2E01382128288EE93E0A2
:100F7000A0E0B0E084839583A683B7838CE092E001
:100F80009183808385EC90E09587848784EC90E062
:100F90009787868780EC90E0918B808B81EC90E046
:100FA000938B828B82EC90E0958B848B86EC90E027
:100FB000978B868B118E128E138E148E0895BB27FD
:100FC000FB015527AA27880F991FAA1FA41710F005
:100FD000A41B83955051B9F7A05DAA3308F0A95D11
:100FE000A193009779F7B111B1931192CB010C94B1
:100FF000F907DC01FC01672F71917723E1F7329744
:1010000004C07C916D9370836291AE17BF07C8F3E3
:1010100008950E944B0808F481E00895E89409C0FF
:1010200097FB3EF490958095709561957F4F8F4F1B
:101030009F4F9923A9F0F92F96E9BB279395F69531
:10104000879577956795B795F111F8CFFAF4BB0FAF
:1010500011F460FF1BC06F5F7F4F8F4F9F4F16C013
:10106000882311F096E911C0772321F09EE8872F9D
:10107000762F05C0662371F096E8862F70E060E059
:101080002AF09A95660F771F881FDAF7880F9695D2
:10109000879597F90895990F0008550FAA0BE0E876
:1010A000FEEF16161706E807F907C0F0121613062A
:1010B000E407F50798F0621B730B840B950B39F46A
:1010C0000A2661F0232B242B252B21F408950A26D0
:1010D00009F4A140A6958FEF811D811D089597F910
:1010E0009F6780E870E060E008959FEF80EC0895CE
:1010F00000240A94161617061806090608950024F7
:101100000A9412161306140605060895092E039470
:10111000000C11F4882352F0BB0F40F4BF2B11F4E4
:1011200060FF04C06F5F7F4F8F4F9F4F089557FD43
:101130009058440F551F59F05F3F71F04795880F45
:1011400097FB991F61F09F3F79F0879508951216DC
:1011500013061406551FF2CF4695F1DF08C0161688
:1011600017061806991FF1CF869571056105089439
:101170000895E894BB2766277727CB0197F9089550
:101180000E94D4080C9486080E947F0858F00E94A0
:10119000780840F029F45F3F29F00C946F08511152
:1011A0000C94BA080C9475080E94970868F3992368
:1011B000B1F3552391F3951B550BBB27AA27621753
:1011C0007307840738F09F5F5F4F220F331F441F60
:1011D000AA1FA9F335D00E2E3AF0E0E832D0915094
:1011E0005040E695001CCAF72BD0FE2F29D0660F81
:1011F000771F881FBB1F261737074807AB07B0E8C4
:1012000009F0BB0B802DBF01FF2793585F4F3AF0C9
:101210009E3F510578F00C946F080C94BA085F3F1C
:10122000E4F3983ED4F3869577956795B795F7954F
:101230009F5FC9F7880F911D9695879597F9089537
:10124000E1E0660F771F881FBB1F621773078407D3
:10125000BA0720F0621B730B840BBA0BEE1F88F7E2
:10126000E09508950E944B0808F48FEF0895EE0F63
:10127000FF1F881F8BBF0790F691E02D19940F93E5
:101280001F93CF93DF938230910510F482E090E0BA
:10129000E091F802F091F90230E020E0B0E0A0E047
:1012A000309799F42115310509F44AC0281B390BF0
:1012B00024303105D8F58A819B816115710589F14A
:1012C000FB0193838283FE0111C040815181028121
:1012D000138148175907E0F04817590799F41097F8
:1012E00061F012960C93129713961C933296CF01CD
:1012F000DF91CF911F910F9108950093F802109301
:10130000F902F4CF2115310551F04217530738F097
:10131000A901DB019A01BD01DF01F801C1CFEF0195
:10132000F9CF9093F9028093F802CDCFFE01E20F3E
:10133000F31F819391932250310939832883D7CFAA
:101340002091F6023091F702232B41F42091040200
:10135000309105023093F7022093F60220910202A9
:10136000309103022115310541F42DB73EB740916C
:10137000060250910702241B350BE091F602F09112
:10138000F702E217F307A0F42E1B3F0B28173907CB
:1013900078F0AC014E5F5F4F2417350748F04E0FD1
:1013A0005F1F5093F7024093F602819391939FCF72
:1013B000F0E0E0E09CCFCF93DF930097E9F0FC01F1
:1013C000329713821282A091F802B091F902ED01D6
:1013D00030E020E01097A1F420813181820F931F2B
:1013E0002091F6023091F7022817390709F061C001
:1013F000F093F702E093F602DF91CF910895EA01AE
:10140000CE17DF07E8F54A815B819E014115510542
:10141000B1F7E901FB83EA8349915991C40FD51FC4
:10142000EC17FD0761F4808191810296840F951F6E
:10143000E90199838883828193819B838A83F0E089
:10144000E0E012968D919C9113970097B9F52D913C
:101450003C911197CD010296820F931F2091F602C5
:101460003091F7022817390739F6309751F5109265
:10147000F9021092F802B093F702A093F602BCCFE3
:10148000D383C28340815181840F951FC817D90728
:1014900061F44E5F5F4F88819981480F591F5183D6
:1014A00040838A819B81938382832115310509F0D2
:1014B000B0CFF093F902E093F8029ECFFD01DC017A
:1014C000C0CF13821282D7CF4F925F926F927F92DA
:1014D0008F929F92AF92BF92CF92DF92EF92FF9244
:1014E0000F931F93CF93DF938C01009799F4CB0157
:1014F000DF91CF911F910F91FF90EF90DF90CF90F0
:10150000BF90AF909F908F907F906F905F904F9023
:101510000C943F09FC01E60FF71F9C012250310992
:10152000E217F30708F4AEC0D901CD91DC91119711
:10153000C617D70720F1C530D10578F0CE01049742
:101540008617970750F0C61BD70B2297C193D193EC
:101550006D937C93CF010E94DB09C801DF91CF918D
:101560001F910F91FF90EF90DF90CF90BF90AF90C1
:101570009F908F907F906F905F904F9008955B0148
:10158000AC1ABD0A4C018C0E9D1EA091F802B091C0
:10159000F902512C412CF12CE12C109731F580915E
:1015A000F6029091F7028815990509F05CC046167D
:1015B000570608F058C080910202909103020097EC
:1015C00041F48DB79EB74091060250910702841BEB
:1015D000950BE817F90708F055C0F093F702E09370
:1015E000F602F90171836083B8CF8D919C911197B8
:1015F00012966C90129713967C901397A815B905C4
:1016000059F56C0142E0C40ED11CCA14DB0420F170
:10161000AC014A195B09DA011296159780F06282D3
:10162000738251834083D9016D937C93E114F1045B
:1016300071F0D7011396FC93EE9312978ECF2296FA
:101640008C0F9D1FF90191838083F301EFCFF093FD
:10165000F902E093F80281CF4816590608F42C01EC
:101660007D01D3019ACFCB010E943F097C010097F5
:1016700049F0AE01B8010E94450BC8010E94DB0988
:1016800087016BCF10E000E068CFFB01DC0102C0F6
:1016900001900D9241505040D8F70895FB01DC01B4
:0E16A00001900D920020E1F70895F894FFCF1D
:1016AE0001010000FA0280000000000019026A0128
:1016BE00B0016602E101BF01D3010D0A0028002C22
:1016CE0020002900436865636B696E6720002074F3
:1016DE00696D6573207065722074726967676572D3
:0216EE002E00CC
:00000001FF
