:100000000C94B4010C94E5010C94E5010C94E50109
:100010000C94E5010C94E5010C94E5010C94E501C8
:100020000C94E5010C94E5010C94E5010C94E501B8
:100030000C94E5010C94E5010C94E5010C94E501A8
:100040000C94E5010C94E5010C94E5010C94E50198
:100050000C94E5010C94E5010C94E5010C94140753
:100060000C94E5010C9488070C945E070C94E50150
:100070000C94E5010C94E5010C94E5010C94E50168
:100080000C94E5010C94E5010C94E5010C94BE0779
:100090000C94E5010C94E5010C94E5010C94E50148
:1000A0000C94E5010C94E5010C94E5010C94E50138
:1000B0000C94E5010C94E5010C94E5010C94E50128
:1000C0000C94E5010C94E5010C94E5010C94E50118
:1000D0000C94E5010C94E5010C94E5010C94E50108
:1000E0000C94E5010C94AE030C94B8030C949602A6
:1000F0000C947D030C94B4030C9488030C941509A0
:100100000C9464030C9498030C9469030C949C0362
:100110000C94E7010C94A0030C9450020C948503FA
:100120000C9492030C943C020C94E3020C942D0268
:100130000C94AA030C945E020C94A6030C9479030D
:100140000C9481030C948E030C94430500407A10A8
:10015000F35A00A0724E18090010A5D4E80000E878
:100160007648170000E40B54020000CA9A3B0000D6
:1001700000E1F505000080969800000040420F0065
:100180000000A08601000000102700000000E80326
:10019000000000006400000000000A0000000000F1
:1001A0000100000000002C76D888DC674F0823DFB0
:1001B000C1DFAE59E1B1B796E5E3E453C63AE65183
:1001C000997696E8E6C28426EB898C9B62ED407CAA
:1001D0006FFCEFBC9C9F40F2BAA56FA5F490055A46
:1001E0002AF75C936B6CF9676DC11BFCE0E40D476B
:1001F000FEF520E6B500D0ED902E0300943577058E
:100200000080841E080000204E0A000000C80C3345
:100210003333330F986E12831141EF8D2114893BD4
:10022000E65516CFFEE6DB18D1844B381BF77C1D54
:10023000901DA4BBE424203284725E228100C9F1A7
:1002400024ECA1E53D2700002200250028002B001A
:100250002E003100340002010000050108010B01ED
:1002600000002100240027002A002D003000330068
:1002700001010000040107010A0100002000230021
:10028000260029002C002F0032000001000003018D
:100290000601090105050505070508080808020209
:1002A00002020A0A08080404040401010101010110
:1002B00001010303030303030303040707070C0CF3
:1002C0000C0C0C0C0C0C02020202060606060606BA
:1002D00006060B0B0B0B0B0B0B0B0102102020085F
:1002E0000810204010204080020102010804020191
:1002F0000102040810204080804020100804020100
:100300008004020180402010080402010804020158
:1003100001020408102040800102040810204080DF
:1003200000000A0B02090C0D0E080703040100006F
:1003300000000000000000000000000000000000BD
:10034000000000000000000000000000121110007A
:10035000000000000000000000000000000000009D
:10036000000000000000150911241FBECFEFD1E2EC
:10037000DEBFCDBF00E00CBF23E0A0EAB2E001C0C9
:100380001D92AA35B207E1F712E0A0E0B2E0E2E583
:10039000FEE100E00BBF02C007900D92A03AB1074A
:1003A000D9F711E0C4EBD1E000E006C021970109C4
:1003B000802FFE010E94090DC33BD10780E0080792
:1003C000A9F70E94E9070C94270F0C940000AF9244
:1003D000BF92CF92DF92EF92FF920F931F93CF9332
:1003E000DF936C017B018B01040F151FEB015E0194
:1003F000AE18BF08C017D10759F06991D601ED9129
:10040000FC910190F081E02DC6011995892B79F7B7
:10041000C501DF91CF911F910F91FF90EF90DF9079
:10042000CF90BF90AF900895CF93DF93FC014481AC
:1004300055816081718189EB92E00E94E701EC01B6
:1004400042E050E06AE172E089EB92E00E94E7014D
:100450008C0F9D1FDF91CF910895FC01538D448D2A
:10046000252F30E0842F90E0821B930B541710F05F
:10047000CF96089501970895FC01918D828D98176C
:1004800061F0A28DAE0FBF2FB11D5D968C91928D44
:100490009F5F9F73928F90E008958FEF9FEF089575
:1004A000FC01918D828D981731F0828DE80FF11D3E
:1004B000858D90E008958FEF9FEF0895FC01918D59
:1004C000228D892F90E0805C9F4F821B91098F7352
:1004D0009927089589EB92E00E945E0221E0892B22
:1004E00009F420E0822F0895FC01A48DA80FB92FF4
:1004F000B11DA35ABF4F2C91848D90E001968F734C
:100500009927848FA689B7892C93A089B1898C916A
:10051000837080648C93938D848D981306C00288B9
:10052000F389E02D80818F7D80830895EF92FF9283
:100530000F931F93CF93DF93EC0181E0888F9B8D06
:100540008C8D98131AC0E889F989808185FF15C0C0
:100550009FB7F894EE89FF896083E889F9898081E3
:100560008370806480839FBF81E090E0DF91CF91B2
:100570001F910F91FF90EF900895F62E0B8D10E0D4
:100580000F5F1F4F0F731127E02E8C8D8E110CC043
:100590000FB607FCFACFE889F989808185FFF5CF8E
:1005A000CE010E947402F1CFEB8DEC0FFD2FF11DF7
:1005B000E35AFF4FF0829FB7F8940B8FEA89FB89CB
:1005C00080818062CFCFCF93DF93EC01888D882329
:1005D000B9F0AA89BB89E889F9898C9185FD03C0A6
:1005E000808186FD0DC00FB607FCF7CF8C9185FF8B
:1005F000F2CF808185FFEDCFCE010E947402E9CF5A
:10060000DF91CF91089580E090E0892B29F00E943E
:100610006A0281110E94000080E090E0892B49F07D
:1006200080E090E0892B29F00E94000081110E9457
:10063000000080E090E0892B49F080E090E0892B79
:1006400029F00E94000081110E94000080E090E0EB
:10065000892B49F080E090E0892B29F00E9400006E
:1006600081110C9400000895282F30E0F901E05E1C
:10067000FC4F9491F901E652FD4F44912C563D4FA9
:10068000F9012491222309F477C0992311F19150A3
:100690009231F8F4E92FF0E08827EE5AFC4F8F4FA3
:1006A0000C94090D81038503640379037D036903B9
:1006B00088038E03920398039C03A003A603AA0356
:1006C0006903AE03B403B803809180008F778093F1
:1006D0008000E22FF0E0EE0FFF1FE658FD4FA591DE
:1006E000B491EC91E42381E090E009F047C080E010
:1006F0000895809180008F7DEACF80918000877F70
:10070000E6CF84B58F7784BDE4CF84B58F7DFBCFF2
:100710008091B0008F778093B000DBCF8091B000E4
:100720008F7DF9CF809190008F7780939000D1CF0B
:10073000809190008F7DF9CF80919000877FF5CFD9
:100740008091A0008F778093A000C3CF8091A000FC
:100750008F7DF9CF8091A000877FF5CF8091200118
:100760008F7780932001B5CF809120018F7DF9CFC5
:1007700080912001877FF5CF80E090E00895CF93AE
:10078000DF9390E0FC01E652FD4F24918C569D4F83
:10079000FC0184918823D1F090E0880F991FFC011F
:1007A000E05AFD4FA591B491FC01EA5BFD4FC59164
:1007B000D49161110EC09FB7F8948C91E22FE0950F
:1007C0008E238C932881E223E8839FBFDF91CF9112
:1007D00008958FB7F894EC91E22BEC938FBFF6CF8E
:1007E0000F931F93CF93DF93EC018881998100973A
:1007F00059F02A813B812617370730F081E0DF91DD
:10080000CF911F910F9108958B016F5F7F4F0E94D1
:10081000360E009759F0998388831B830A832C81B5
:100820003D81232B59F7FC011082E8CF80E0E7CF10
:10083000EF92FF920F931F93CF93DF936115710592
:1008400041F480E0DF91CF911F910F91FF90EF90E5
:10085000089541155105B1F07B01EC010C811D811A
:10086000040F151FB8010E94F003882351F328815B
:1008700039818C819D81B701820F931F0E94200FC7
:100880001D830C8381E0DECFCF93DF93EC01888161
:100890009981009711F00E94AD0D198218821D8276
:1008A0001C821B821A82DF91CF910895EF92FF92F2
:1008B0000F931F93CF93DF93EC017B011982188272
:1008C0001B821A821D821C82FB0101900020E9F725
:1008D00031978F01061B170BB8010E94F00381119D
:1008E00009C0CE01DF91CF911F910F91FF90EF9042
:1008F0000C9444041D830C83B70188819981DF9196
:10090000CF911F910F91FF90EF900C94200FEF92D9
:10091000FF920F931F93CF93DF938C017B01EB0129
:1009200009900020E9F72197C61BD70BBE010E9452
:10093000F003811109C0C801DF91CF911F910F9180
:10094000FF90EF900C944404F801D583C483B70161
:1009500080819181DF91CF911F910F91FF90EF9056
:100960000C94200FEF92FF920F931F93CF93DF937E
:10097000CDB7DEB7A1970FB6F894DEBF0FBECDBFDF
:100980007C01CB01BA01F70111821082138212821D
:10099000158214828E010F5F1F4F22E044E00E94F7
:1009A0004209009789F0BC01C7010E948704A19603
:1009B0000FB6F894DEBF0FBECDBFDF91CF911F9170
:1009C0000F91FF90EF900895C7010E944404EFCF6C
:1009D0000F931F93CF93DF9300D000D000D0CDB7FB
:1009E000DEB78C01862FF8011182108213821282E9
:1009F000158214824AE0BE016F5F7F4F90E00E9433
:100A00006009BE016F5F7F4FC8010E94870429966D
:100A10000FB6F894DEBF0FBECDBFDF91CF911F910F
:100A20000F910895CF93DF93EC01FB01019000201B
:100A3000E9F73197AF01461B570B0E94180481114B
:100A400003C0CE010E944404CE01DF91CF910895EE
:100A5000CF93DF93EC01FB0144815581608171816B
:100A60000E941804811103C0CE010E944404CE01EB
:100A7000DF91CF910895FC0180819181009711F061
:100A80000C94AD0D0895AF92BF92CF92DF92EF928A
:100A9000FF920F931F93CF93DF93CDB7DEB72C97C1
:100AA0000FB6F894DEBF0FBECDBF83E00E943403C3
:100AB0007C0184E00E9434035C018091A7028111D3
:100AC0000CC081E0E114F10409F480E0909101028E
:100AD000981719F081E08093A7028091A6028111F6
:100AE0000CC081E0A114B10409F480E090910002EF
:100AF000981719F081E08093A6020091A7020111D6
:100B000072C010E08091A602882309F450C0AB287F
:100B100029F08091A2028F5F8093A2028091A102AE
:100B20008F5F8093A102823308F441C06091A202DA
:100B300070E090E080E00E94E00B20E030E048E4CC
:100B400052E40E94920C6B017C0180910002B7017B
:100B5000A601882309F4CBC0CE0107960E94B204F7
:100B60006CE472E0CE0101960E945604BE01695FFA
:100B70007F4FCE0101960E9428050E941402CE01EB
:100B800001960E943B05CE0107960E943B052DEC85
:100B90003CEC4CE45EE3C701B6010E94DB0B87FF2F
:100BA000D5C0109200021092A2021092A102809170
:100BB0000102811107C080910002811103C081E010
:100BC0008093A3022C960FB6F894DEBF0FBECDBF64
:100BD000DF91CF911F910F91FF90EF90DF90CF9019
:100BE000BF90AF900895EF2829F08091A5028F5F04
:100BF0008093A5028091A4028F5F8093A402823328
:100C000008F47FCF109101026091A50270E090E09E
:100C100080E00E94E00B20E030E048E452E40E94D3
:100C2000920C6B017C01BC01A601CE010796112339
:100C300071F10E94B2046DE172E0CE0101960E9452
:100C40005604BE01695F7F4FCE0101960E942805C0
:100C50000E941402CE0101960E943B05CE01079628
:100C60000E943B052DEC3CEC4CE45EE3C701B60171
:100C70000E94DB0B87FF08C01092010210E0109267
:100C8000A5021092A4023ECF1092A702F7CF0E94B5
:100C9000B20465E372E0CE0101960E945604BE01E3
:100CA000695F7F4FCE0101960E9428050E941402C1
:100CB000CE0101960E943B05CE0107960E943B059E
:100CC0002DEC3CEC4CE45FE3C701B6010E94040D3F
:100CD0001816ACF61091A3021111D1CF81E08093C8
:100CE00001028093AF021092A702102FC8CFCE014D
:100CF00007960E94B20464E672E0CE0101960E945B
:100D00005604BE01695F7F4FCE0101960E942805FF
:100D10000E941402CE0101960E943B05CE01079667
:100D20000E943B052DEC3CEC4CE45FE3C701B601AF
:100D30000E94040D18160CF036CF8091A302811189
:100D400008C081E0809300028093AD021092A60259
:100D50002ACF112309F427CF81E0809301028093E9
:100D600000028093AB021092A3021092A60210928E
:100D7000A70219CFCF93DF93CDB7DEB768970FB631
:100D8000F894DEBF0FBECDBF6091AA02CE0143969C
:100D90000E94E8046091AC02CE010D960E94E80426
:100DA0006091AE02CE0107960E94E8046BE772E004
:100DB000CE0101960E945604BE01695F7F4FCE01AD
:100DC00001960E9428056DE772E00E941205BE019F
:100DD000635F7F4F0E9428056DE772E00E94120555
:100DE000BE016D5E7F4F0E94280560E872E00E94A0
:100DF00012050E941402CE0101960E943B05CE010D
:100E000007960E943B05CE010D960E943B05CE0140
:100E100043960E943B0568960FB6F894DEBF0FBE5E
:100E2000CDBFDF91CF9108951F920F920FB60F9211
:100E300011242F933F938F939F93AF93BF938091F0
:100E4000B5029091B602A091B702B091B80230916C
:100E5000B40223E0230F2D3758F50196A11DB11DD3
:100E60002093B4028093B5029093B602A093B70288
:100E7000B093B8028091B0029091B102A091B202F9
:100E8000B091B3020196A11DB11D8093B002909361
:100E9000B102A093B202B093B302BF91AF919F9100
:100EA0008F913F912F910F900FBE0F901F9018952B
:100EB00026E8230F0296A11DB11DD2CF1F920F92DB
:100EC0000FB60F9211240BB60F922F933F934F93AF
:100ED0005F936F937F938F939F93AF93BF93EF93A2
:100EE000FF9389EB92E00E947402FF91EF91BF9112
:100EF000AF919F918F917F916F915F914F913F91B2
:100F00002F910F900BBE0F900FBE0F901F90189552
:100F10001F920F920FB60F9211240BB60F922F93C0
:100F20008F939F93EF93FF93E091C902F091CA02D0
:100F30008081E091CF02F091D00282FD1DC09081AE
:100F40008091D2028F5F8F732091D302821741F07C
:100F5000E091D202F0E0E754FD4F958F8093D202EA
:100F6000FF91EF919F918F912F910F900BBE0F905A
:100F70000FBE0F901F9018958081F2CF1F920F9295
:100F80000FB60F9211240BB60F922F933F934F93EE
:100F90005F936F937F938F939F93AF93BF93EF93E1
:100FA000FF93E091A802F091A9021995FF91EF91AA
:100FB000BF91AF919F918F917F916F915F914F9171
:100FC0003F912F910F900BBE0F900FBE0F901F906F
:100FD0001895CF93DF93CDB7DEB767970FB6F89428
:100FE000DEBF0FBECDBF789484B5826084BD84B56A
:100FF000816084BD85B5826085BD85B5816085BD14
:1010000080916E00816080936E00109281008091CB
:101010008100826080938100809181008160809353
:101020008100809180008160809380008091B10078
:1010300084608093B1008091B00081608093B000A3
:1010400080919100826080939100809191008160F5
:1010500080939100809190008160809390008091B6
:10106000A10082608093A1008091A10081608093A3
:10107000A1008091A00081608093A0008091210157
:101080008260809321018091210181608093210100
:101090008091200181608093200180917A0084609A
:1010A00080937A0080917A00826080937A008091A8
:1010B0007A00816080937A0080917A0080688093C2
:1010C0007A001092C10061E08DE00E94BF0360E0F1
:1010D00083E00E94BF0360E084E00E94BF03E091D0
:1010E000C902F091CA0282E08083E091C502F091CA
:1010F000C6021082E091C702F091C8028FEC808393
:101100001092D102E091CD02F091CE0286E0808370
:10111000E091CB02F091CC02808180618083E091EC
:10112000CB02F091CC02808188608083E091CB0279
:10113000F091CC02808180688083E091CB02F091B5
:10114000CC0280818F7D808380E18093910010921A
:10115000900080E49FE1909397008093960081E156
:101160008093910083E495E09093A9028093A80274
:1011700081E0809371001B8A1A8A1D8A1C8A1F8A4B
:101180001E8A4AE0BE016F5F7F4F82E390E00E94BB
:101190006009BE016F5F7F4FCE0142960E948704B7
:1011A00062E872E0CE0101960E945604BE016E5EB6
:1011B0007F4FCE0101960E9428056CE872E00E94E4
:1011C00012050E941402CE0101960E943B05CE0139
:1011D00042960E943B058091AF02882349F080919E
:1011E000AE028F5F8093AE021092AF020E94BA06E9
:1011F0008091AD02882349F08091AC028F5F80938B
:10120000AC021092AD020E94BA068091AB02882314
:1012100049F08091AA028F5F8093AA021092AB02DC
:101220000E94BA060E940303D6CFE9EBF2E01382D4
:10123000128288EE93E0A0E0B0E084839583A683D9
:10124000B7838CE092E09183808385EC90E0958772
:10125000848784EC90E09787868780EC90E0918B80
:10126000808B81EC90E0938B828B82EC90E0958B6D
:10127000848B86EC90E0978B868B118E128E138E6A
:10128000148E0895EF920F931F93CF93DF93E8018D
:1012900034E047FD34E1042E000C550B57FF03C02A
:1012A000519541955109E32E022F242FAE010E9442
:1012B0007A09CE01DF91CF911F910F91EF900895A0
:1012C000BB27FB015527AA27880F991FAA1FA41720
:1012D00010F0A41B83955051B9F7A05DAA3308F014
:1012E000A95DA193009779F7B111B1931192CB0148
:1012F0000C94CB0B8F929F92AF92BF92CF92DF92C2
:10130000EF92FF920F931F93CF93DF9300D000D003
:1013100000D0CDB7DEB76A01F22EB02E102FFBE35E
:10132000AF2EA01608F41BE31F5F012F27E0AE01CC
:101330004F5F5F4F0E94F30ABC018981982F99701B
:10134000913009F44EC09BE2E1FC04C09E2D9170E7
:10135000E0FC49C05E2D5071E82FE87083FF55C056
:1013600084E0911101C083E0EF2DE81B8F1508F098
:10137000E0E0D6018E2F20E25523C9F1992329F010
:10138000D6019C93C60101966C0196012D5F3F4FDB
:10139000E2FE33C08EE4D6018C9391E411969C93C7
:1013A000119712968C93D9018E2F90E281112AC049
:1013B000E20FF32FF11D10828EEF9FEF29960FB6EB
:1013C000F894DEBF0FBECDBFDF91CF911F910F917B
:1013D000FF90EF90DF90CF90BF90AF909F908F9055
:1013E00008959DE2B7CF90E2B5CF2D938150811142
:1013F000FCCFCE0ED11CE0E0C1CF8EE6D6018C939F
:1014000091E6CCCF9D938150D1CF482F447082FF7D
:101410003DC084E0911101C083E08F1510F4EF2DE1
:10142000E81BD6018E2F20E2552309F1992329F0DC
:10143000D6019C93C60101966C0196012D5F3F4F2A
:10144000E2FE1BC089E4D6018C938EE411968C9346
:10145000119786E412968C93D9018E2F90E28823FF
:1014600009F4A6CF9D938150FACF2D93815081111D
:10147000FCCFCE0ED11CE0E0D9CF89E6D6018C930B
:101480008EE611968C93119786E6E4CF9B0177FF49
:1014900002C030E020E0A1E0B0E0911102C0B0E075
:1014A000A0E0F9013196AE0FBF1F8B2C912CBB2011
:1014B00009F461C05401EFEFAE1ABE0AAA0DBB1DBC
:1014C000FA161B0619F014F04F2D4A1B511188C053
:1014D000E3FC59C07601A42FB0E2A1114FC0C40EA5
:1014E000D11C992309F45BC040E0D6011196F601A6
:1014F00090836D01552309F448C0012F060F9A818E
:10150000582F507184FF03C0913309F40150101615
:101510000CF047C0093008F008E0EEE2FE2E5B0157
:10152000A01AB10885019194819491082F3F320748
:1015300029F4D601FC92F60131966F016217730708
:1015400094F1021713077CF5DB01A21BB30BAA244D
:10155000A394B12CAC0EBD1EAA0DBB1D11968C918F
:1015600021503109D601119628153905F4F0F601FC
:1015700080836D01DBCFB12CA12CA0CFF701B193FB
:101580007F01A150AACF9111B0CFD601942F50E383
:1015900002C05D9391509111FCCFC40ED11C40E06C
:1015A000ACCF01E0BACF80E3DBCF6217730731F431
:1015B000963388F4953311F4552369F0F60180834E
:1015C000FD01842F90E2811108C0A40FB11D1C926F
:1015D00090E080E0F3CE81E3F1CF91938150F3CF9F
:1015E000911183CF8ACF283008F027E03327DA0122
:1015F000990F311D87FD916000966105710539F4E1
:1016000032602E5F3D9330E32A95E1F708959F3FC6
:1016100030F080387105610509F03C5F3C5F3D9317
:10162000913008F08068911DDF93CF931F930F9343
:10163000FF92EF92192F987F9695E92F96959695A0
:10164000E90FFF27EA55FE4F99273327EE24FF24A1
:10165000A701E70105900894079428F4360FE71EC8
:10166000F81E491F511D660F771F881F991F06948A
:10167000A1F70590079428F4E70EF81E491F561F9E
:10168000C11D770F881F991F661F0694A1F705904B
:10169000079428F4F80E491F561FC71FD11D880F45
:1016A000991F661F771F0694A1F70590079420F4F1
:1016B000490F561FC71FD81F990F661F771F881F16
:1016C0000694A9F784911095177041F0D695C795A7
:1016D00057954795F794E7941A95C1F7ECE4F1E034
:1016E00068941590159135916591959105907FE2DB
:1016F0007395E118F10A430B560BC90BD009C0F7DB
:10170000E10CF11E431F561FC91FD01D7EF470331C
:1017100011F48A95E6CFE894015030F0080F0AF4EE
:101720000027021708F4202F2395022F7A3328F080
:1017300079E37D932A95E9F710C07D932A9589F680
:10174000069497956795379517951794E118F10AC0
:10175000430B560BC90BD00998F023957E917395D6
:101760007A3308F070E37C932013B8F77E917061B0
:101770007D9330F0839571E37D9370E32A95E1F7D3
:101780001124EF90FF900F911F91CF91DF91992736
:1017900087FD90950895DC01FC01672F71917723F7
:1017A000E1F7329704C07C916D9370836291AE171C
:1017B000BF07C8F308950E941D0C08F481E0089546
:1017C000E89409C097FB3EF49095809570956195DB
:1017D0007F4F8F4F9F4F9923A9F0F92F96E9BB2791
:1017E0009395F695879577956795B795F111F8CF0D
:1017F000FAF4BB0F11F460FF1BC06F5F7F4F8F4F78
:101800009F4F16C0882311F096E911C0772321F06D
:101810009EE8872F762F05C0662371F096E8862F05
:1018200070E060E02AF09A95660F771F881FDAF75C
:10183000880F9695879597F90895990F0008550F89
:10184000AA0BE0E8FEEF16161706E807F907C0F046
:1018500012161306E407F50798F0621B730B840B4E
:10186000950B39F40A2661F0232B242B252B21F428
:1018700008950A2609F4A140A6958FEF811D811DC8
:10188000089597F99F6780E870E060E008959FEF02
:1018900080EC089500240A94161617061806090607
:1018A000089500240A9412161306140605060895D6
:1018B000092E0394000C11F4882352F0BB0F40F45E
:1018C000BF2B11F460FF04C06F5F7F4F8F4F9F4F9E
:1018D000089557FD9058440F551F59F05F3F71F020
:1018E0004795880F97FB991F61F09F3F79F0879587
:1018F0000895121613061406551FF2CF4695F1DF10
:1019000008C0161617061806991FF1CF869571059F
:10191000610508940895E894BB2766277727CB01D3
:1019200097F908950E94A60C0C94580C0E94510C33
:1019300058F00E944A0C40F029F45F3F29F00C94C3
:10194000410C51110C948C0C0C94470C0E94690CA6
:1019500068F39923B1F3552391F3951B550BBB27DE
:10196000AA2762177307840738F09F5F5F4F220F23
:10197000331F441FAA1FA9F335D00E2E3AF0E0E81A
:1019800032D091505040E695001CCAF72BD0FE2F64
:1019900029D0660F771F881FBB1F261737074807F8
:1019A000AB07B0E809F0BB0B802DBF01FF279358B0
:1019B0005F4F3AF09E3F510578F00C94410C0C9427
:1019C0008C0C5F3FE4F3983ED4F38695779567954A
:1019D000B795F7959F5FC9F7880F911D96958795E5
:1019E00097F90895E1E0660F771F881FBB1F621704
:1019F00073078407BA0720F0621B730B840BBA0BC2
:101A0000EE1F88F7E09508950E941D0C08F48FEFF3
:101A10000895EE0FFF1F881F8BBF0790F691E02DF2
:101A200019940F931F93CF93DF938230910510F495
:101A300082E090E0E0915803F091590330E020E01B
:101A4000B0E0A0E0309799F42115310509F44AC0BF
:101A5000281B390B24303105D8F58A819B8161150B
:101A6000710589F1FB0193838283FE0111C04081DE
:101A700051810281138148175907E0F0481759072F
:101A800099F4109761F012960C93129713961C9389
:101A90003296CF01DF91CF911F910F91089500935E
:101AA000580310935903F4CF2115310551F0421713
:101AB000530738F0A901DB019A01BD01DF01F801EC
:101AC000C1CFEF01F9CF9093590380935803CDCF45
:101AD000FE01E20FF31F8193919322503109398364
:101AE0002883D7CF2091560330915703232B41F4FD
:101AF000209104023091050230935703209356033E
:101B000020910202309103022115310541F42DB7D5
:101B10003EB74091060250910702241B350BE0911D
:101B20005603F0915703E217F307A0F42E1B3F0B67
:101B30002817390778F0AC014E5F5F4F241735073F
:101B400048F04E0F5F1F5093570340935603819305
:101B500091939FCFF0E0E0E09CCFCF93DF9300978D
:101B6000E9F0FC01329713821282A0915803B091E0
:101B70005903ED0130E020E01097A1F4208131817C
:101B8000820F931F2091560330915703281739076E
:101B900009F061C0F0935703E0935603DF91CF91B2
:101BA0000895EA01CE17DF07E8F54A815B819E01BF
:101BB00041155105B1F7E901FB83EA834991599138
:101BC000C40FD51FEC17FD0761F480819181029647
:101BD000840F951FE90199838883828193819B8378
:101BE0008A83F0E0E0E012968D919C911397009724
:101BF000B9F52D913C911197CD010296820F931F5B
:101C000020915603309157032817390739F630973A
:101C100051F51092590310925803B0935703A093B3
:101C20005603BCCFD383C28340815181840F951F5B
:101C3000C817D90761F44E5F5F4F88819981480FBB
:101C4000591F518340838A819B819383828321150D
:101C5000310509F0B0CFF0935903E09358039ECFBC
:101C6000FD01DC01C0CF13821282D7CF4F925F9269
:101C70006F927F928F929F92AF92BF92CF92DF929C
:101C8000EF92FF920F931F93CF93DF938C010097F6
:101C900099F4CB01DF91CF911F910F91FF90EF90BD
:101CA000DF90CF90BF90AF909F908F907F906F907C
:101CB0005F904F900C94110DFC01E60FF71F9C01F3
:101CC00022503109E217F30708F4AEC0D901CD91D3
:101CD000DC911197C617D70720F1C530D10578F0F0
:101CE000CE0104978617970750F0C61BD70B229793
:101CF000C193D1936D937C93CF010E94AD0DC80128
:101D0000DF91CF911F910F91FF90EF90DF90CF90D7
:101D1000BF90AF909F908F907F906F905F904F900B
:101D200008955B01AC1ABD0A4C018C0E9D1EA0915A
:101D30005803B0915903512C412CF12CE12C1097F0
:101D400031F580915603909157038815990509F054
:101D50005CC04616570608F058C080910202909168
:101D60000302009741F48DB79EB74091060250914F
:101D70000702841B950BE817F90708F055C0F0938C
:101D80005703E0935603F90171836083B8CF8D91B7
:101D90009C91119712966C90129713967C901397C2
:101DA000A815B90559F56C0142E0C40ED11CCA143E
:101DB000DB0420F1AC014A195B09DA011296159790
:101DC00080F06282738251834083D9016D937C934A
:101DD000E114F10471F0D7011396FC93EE9312977E
:101DE0008ECF22968C0F9D1FF90191838083F30182
:101DF000EFCFF0935903E093580381CF481659066B
:101E000008F42C017D01D3019ACFCB010E94110D62
:101E10007C01009749F0AE01B8010E94170FC8017C
:101E20000E94AD0D87016BCF10E000E068CFFB0191
:101E3000DC0102C001900D9241505040D8F7089546
:101E4000FB01DC0101900D920020E1F70895F89468
:021E5000FFCFC2
:101E5200010100005A038000000000009602E70121
:101E62002D02E3025E023C0250020D0A005261742E
:101E7200696F20627574746F6E312066616C6C6973
:101E82006E673A2000526174696F20627574746FD4
:101E92006E3120726973696E673A2000526174690B
:101EA2006F20627574746F6E322066616C6C696E3D
:101EB200673A2000526174696F20627574746F6EA4
:101EC2003220726973696E673A200028002C200064
:101ED2002900436865636B696E6720002074696D31
:101EE20065732070657220747269676765722E006F
:00000001FF
