:020000000528D1
:08000800042885014030860048
:1000100083161C308500C0308600053081008312B5
:100020008B138B1B10280C3084008001840A041E63
:100030001528841E1528512882073334333432346E
:100040002C3406340C340134023482070A3464340C
:10005000E834103482070034003403342734820734
:1000600045345034453420345034493443342034FA
:100070005434413450344534203442344F345834AD
:10008000820750345234453453345334203453347B
:1000900045344E34443420344B34453459342034C0
:1000A0002034B3219F011F081C20A1219F0A9F1DFE
:1000B0005328B3219F01A0211F082F20A2219F0AAE
:1000C0001F1E5C289F0198211F084020A2219F0A23
:1000D0001F1E64288519762205197520851952225C
:1000E000051A0C22061F2A226C280A309F008E0156
:1000F0008F0105142E140000000000000000000015
:100100000000000000008509000000000000000061
:1001100000000000000000000000000000000000DF
:1001200085099F0B7B288501A7209C212030A221D7
:100130002030A2212030A2214C30A2214930A2211E
:100140005630A2214530A221B321B32108002A084C
:100150000319BA282A089F00023095003030940015
:1001600004309600960BB228940BB028950BB0285B
:100170009F0BAC280B102B100B18C72801308E07D3
:10018000030801398F07031CBC282B14D6281E3006
:100190008E0703188F0A2A080319D6289F00EA3011
:1001A0008E0703188F0A8F0A9F0BCF280E08900026
:1001B0000F0891003721A0212630BC211808990092
:1001C000170898002E30970006309F0019308400E1
:1001D0001908303A031DEE282030990000226D30B6
:1001E000A2217430A2212030A221562164210622AE
:1001F0001B0803102B1C0C3EA800030801391C0728
:10020000A90028080C3A031D0A29A801A901920F88
:100210000A29930A98211230BC2103309F0016301E
:1002200084001608303A031D1D2920309600150859
:10023000303A031D1D292030950000226630A2218E
:100240007430A2212830BC2102309F001530840078
:100250001508303A031D2E29203095000022693000
:10026000A2216E30A2212030A22111220800A50176
:100270000E08A6000F08A7000E0803194A299F00C0
:10028000C830A50703080139A60703080139A707E5
:100290009F0B40290F08031908009F00C830A607CC
:1002A00003080139A7079F0B4E29080019309E004B
:1002B00066309D002608A0002708A10072211408BE
:1002C000A8001508A90008000C309E0000309D0011
:1002D0002808A0002908A10072211408920015081E
:1002E0009300080020089B0021089C009A019401BB
:1002F00095011B081C040319932906221D089A075F
:10030000013003059B07013003059C07031893295F
:100310001E089B07013003059C0703189329940FBF
:100320007E29950A7E290800CA30A129C830A12952
:10033000C030A1298B30A1298930A1298830A12979
:1003400080302312A0001430A200A20BA529AB21FB
:10035000AB2123160800A00E20080F3923048600C5
:100360008616861208000A30A4008B010B1DB629E0
:100370000B11A40BB6290800940195019601970171
:10038000980184000008840A00040319F929000870
:100390009C00840300089B0004309F0018308400F8
:1003A000A1011F0325208C001F032A208D00E621B8
:1003B000800084039F0BD0291B088000063E831C0D
:1003C000F9298001840A800A0008DE290622A10A90
:1003D0000C089B07013003050D079C07031CE72948
:1003E00006220C089B0703189C0A0D089C07210392
:1003F000080030309404950496049704980408008B
:100400000008A22184039F0B002A08009B099B0A75
:1004100003199C039C090800AA0A2A080A3A03192E
:10042000AA0194214D30A2216130A2217330A22172
:100430006B30A2212A080319222A2A083038A22167
:100440006D30252A2030A2213030A221B321B321E2
:10045000B32108002B102E109A2103102D0C8E00B2
:100460008E0A8F010E30BC2180229C215330A221A4
:100470004830A2214F30A2215730A2213D30A22185
:100480002D08A6228E00AD0A2D08A6228F00AD0AE7
:100490002D130E080F0403192B14D620061F4E2A05
:1004A000B32108002E1C08002E101008A0002C08F4
:1004B00093221108A000AC0A2C089322AC0A9A21BE
:1004C00003102C0C8E008F010E30BC2180229C2149
:1004D0005330A2214130A2215630A2214530A22121
:1004E0004430A2218519722AB3210800A201A0017B
:1004F00022089322A20AA21E782A85197D2A0800C2
:1005000005309F00183084000430A2000008303A03
:10051000031D8F2A203080008403A20B862A183006
:100520008400002208008900831608158312200821
:100530008800831655308900AA3089008814081E67
:100540009F2A0811081283120B13080089008316D2
:080550000814831208080800DA
:00000001FF
