:100000000C9424010C9445010C9445010C94450179
:100010000C9445010C9445010C9445010C94450148
:100020000C9445010C9445010C9445010C94450138
:100030000C9445010C9445010C9445010C94450128
:100040000C9445010C9445010C9445010C94450118
:100050000C9445010C9445010C9445010C947502D7
:100060000C9445010C9445010C9445010C944501F8
:100070000C9445010C9445010C9445010C944501E8
:100080000C9445010C9445010C9445010C944501D8
:100090000C9445010C9445010C9445010C944501C8
:1000A0000C9445010C9445010C9445010C944501B8
:1000B0000C9445010C9445010C9445010C944501A8
:1000C0000C9445010C9445010C9445010C94450198
:1000D0000C9445010C9445010C9445010C94450188
:1000E0000C9445010C9484010C949C010C94A00187
:1000F0000C94AA010C948A010C9465010C948E0155
:100100000C9480010C9477010C946B010C94980171
:100110000C947A010C94A5010C946F010C9473015A
:100120000C9492010C94A6010000200023002600EC
:1001300029002C002F0032000001000003010601FD
:10014000090100000A0B02090C0D0E080703040147
:10015000000000000000000000000000000000009F
:10016000000000000000000000000000000012116C
:10017000100000000000000000000000000000006F
:100180000000000000000000000022002500280000
:100190002B002E003100340002010000050108018F
:1001A0000B0100002100240027002A002D00300050
:1001B000330001010000040107010A0105050505DE
:1001C000070508080808020202020A0A08080404CF
:1001D00004040101010101010101030303030303FD
:1001E0000303040707070C0C0C0C0C0C0C0C02028C
:1001F000020206060606060606060B0B0B0B0B0B89
:100200000B0B010210202008081020401020408015
:1002100002010201080402010102040810204080CA
:100220008040201008040201800402018040201058
:1002300008040201080402010102040810204080A1
:10024000010204081020408011241FBECFEFD1E22C
:10025000DEBFCDBF00E00CBF12E0A0E0B2E0E0E7FF
:10026000F7E000E00BBF02C007900D92A230B1078B
:10027000D9F722E0A2E0B2E001C01D92AE30B20791
:10028000E1F70E94BF020C94B6030C940000815069
:10029000823108F05AC0E82FF0E08827ED5AFE4F6F
:1002A0008F4F0C94AE037301770165016B016F01F1
:1002B000A5017A01800184018A018E0192019801D1
:1002C0009C01A501A001A601AA01809180008F7761
:1002D000809380000895809180008F7DF9CF809178
:1002E0008000877FF5CF84B58F7784BD089584B56E
:1002F0008F7DFBCF8091B0008F778093B000089501
:100300008091B0008F7DF9CF809190008F7780939E
:1003100090000895809190008F7DF9CF809190009A
:10032000877FF5CF8091A0008F778093A0000895FC
:100330008091A0008F7DF9CF8091A000877FF5CFBD
:10034000809120018F778093200108958091200172
:100350008F7DF9CF80912001877FF5CFCF93DF93F9
:10036000282F30E0F901EE5BFE4F8491F901EE5F3A
:10037000FD4FD491F901E454FE4FC491CC23A1F078
:1003800081110E944701EC2FF0E0EE0FFF1FE85DA6
:10039000FE4FA591B491EC91ED2381E090E009F43A
:1003A00080E0DF91CF91089580E090E0FACF1F9335
:1003B000CF93DF93282F30E0F901EE5BFE4F84915D
:1003C000F901EE5FFD4FD491F901E454FE4FC49161
:1003D000CC23A9F0162F81110E944701EC2FF0E0E9
:1003E000EE0FFF1FE857FE4FA591B4918FB7F89419
:1003F000EC91111108C0D095DE23DC938FBFDF9103
:10040000CF911F910895DE2BF8CF3FB7F8948091DC
:10041000070290910802A0910902B0910A0226B544
:10042000A89B05C02F3F19F00196A11DB11D3FBF2C
:10043000BA2FA92F982F8827BC01CD01620F711DFB
:10044000811D911D42E0660F771F881F991F4A95F5
:10045000D1F708958F929F92AF92BF92CF92DF9281
:10046000EF92FF920E9405024B015C0182E3C82ECD
:10047000D12CE12CF12C0E940502681979098A0916
:100480009B09683E734081059105A8F321E0C21ADB
:10049000D108E108F10888EE880E83E0981EA11CBF
:1004A000B11CC114D104E104F10429F7FF90EF90CD
:1004B000DF90CF90BF90AF909F908F90089583E092
:1004C0000E94AE01892B39F480910002882319F033
:1004D00081E080930D0283E00E94AE0121E0892B30
:1004E00009F420E02093000208951F920F920FB6A6
:1004F0000F9211242F933F938F939F93AF93BF93AA
:100500008091030290910402A0910502B09106022D
:100510003091020223E0230F2D3758F50196A11DDB
:10052000B11D209302028093030290930402A093D2
:100530000502B09306028091070290910802A091F3
:100540000902B0910A020196A11DB11D8093070214
:1005500090930802A0930902B0930A02BF91AF9151
:100560009F918F913F912F910F900FBE0F901F90F1
:10057000189526E8230F0296A11DB11DD2CF7894BD
:1005800084B5826084BD84B5816084BD85B5826098
:1005900085BD85B5816085BD80916E008160809349
:1005A0006E001092810080918100826080938100B2
:1005B00080918100816080938100809180008160C2
:1005C000809380008091B10084608093B10080911D
:1005D000B00081608093B000809191008260809330
:1005E00091008091910081608093910080919000B2
:1005F0008160809390008091A10082608093A1002F
:100600008091A10081608093A1008091A000816011
:100610008093A000809121018260809321018091CC
:10062000210181608093210180912001816080936C
:10063000200180917A00846080937A0080917A0012
:10064000826080937A0080917A00816080937A0042
:1006500080917A00806880937A001092C100EFE068
:10066000F2E02491E9ECF1E08491882399F090E0A4
:10067000880F991FFC01EE55FE4FA591B491FC0126
:10068000E857FE4F859194918FB7F894EC91E22B47
:10069000EC938FBFE5E0F2E02491EFEBF1E0849181
:1006A0008823C1F090E0880F991FFC01EE55FE4FA2
:1006B000C591D491FC01E857FE4FA591B4919FB725
:1006C000F8948881E22FE0958E2388838C91E8232B
:1006D000EC939FBF60910B028DE00E94D70111E067
:1006E00080E0E82E80E0F82E0E945F0280910D02EB
:1006F000882339F080910C02812780930C0210929C
:100700000D0280910C02882319F100910B02602FD9
:1007100061278DE00E94D701C8E0D0E00E942A0244
:100720000E945F022197D1F7602F8DE00E94D701D0
:100730000E942A020E945F020E942A020E945F0217
:100740000E942A020E945F020E942A020E945F0207
:10075000E114F10449F20E940000C6CFEE0FFF1F22
:10076000881F8BBF0790F691E02D1994F894FFCF66
:02077000010086
:00000001FF
