:020000000528D1
:080008000A2800308B081420C7
:10001000212005280A2882075234273411348634D7
:1000200041341E340D3403348316FF3085008600BE
:100030000512051083120800060807390B20A100DD
:1000400008001C200030A3001C20A30A2308602005
:10005000003E031921282D202428A0000514051096
:100060000830A400051200000000000000004D2030
:100070000310A00C03183F280000051241280516A4
:1000800041284D20A40B382800000000000000008B
:10009000000005164D204D2008002108A200A20BEB
:0400A0004F280800DD
:1000C00082072034543468346534203471347534F4
:1000D000693463346B342034623472346F3477346F
:1000E0006E34203466346F34783420346A34753496
:1000F0006D347034733420346F3476346534723434
:10010000203474346834653420346C3461347A3487
:100110007934203464346F3467342E3420345634C8
:100120006934633474346F34723420346A34613423
:100130006734743420347A347734F6346C3466346B
:10014000203442346F3478346B34E4346D3470349A
:100150006634653472342034FC346234653472346D
:100160002034643465346E342034673472346F3430
:10017000DF3465346E342034533479346C34743461
:1001800065347234203444346534693463346834FB
:060190002E34203400347F
:00000001FF
